:100000000C943A000C9457000C942A020C9457005C
:100010000C9457000C9457000C9457000C94570004
:100020000C9457000C9457000C9457000C945700F4
:100030000C9457000C9457000C94BB030C9457007D
:100040000C9457000C9457000C9457000C945700D4
:100050000C9457000C9457000C9457000C945700C4
:100060000C9457000C9457006364696E6F7073753D
:1000700078585B0011241FBECFEFD8E0DEBFCDBFA4
:1000800011E0A0E0B1E0E8E0F7E102C005900D92D8
:10009000A038B107D9F721E0A0E8B1E001C01D9276
:1000A000A83AB207E1F70E94DA000C94820B0C9494
:1000B000000081E090E00E94B80280938401909358
:1000C00085019F938F938CE191E09F938F930E9482
:1000D00073052FEF83ED90E3215080409040E1F7CE
:1000E00000C0000082E090E00E94B802809382018C
:1000F000909383019F938F938CE291E09F938F93D2
:100100000E9473052FEF83ED90E3215080409040D3
:10011000E1F700C0000083E090E00E94B802809305
:100120008001909381019F938F938CE391E09F9343
:100130008F930E9473052FEF83ED90E32150804051
:100140009040E1F700C000008DB79EB70C960FB647
:10015000F8949EBF0FBE8DBF0895E2E9F1E081E003
:1001600090E095838483178216829587848717860B
:1001700016860E949D010895E2E9F1E0158214823D
:1001800081E090E09783868315861486178616860D
:100190000E949D010895E2E9F1E015821482178220
:1001A00016821586148681E090E0978786870E94E4
:1001B0009D0108950E942D040E943E048AB1886A20
:1001C0008AB98AB18B7A8AB90E94590080918401D8
:1001D0009091850189319105D8F420918201309167
:1001E000830129313105A0F42091800130918101F2
:1001F0002931310508F083C00E94CB002FEF87EA38
:1002000091E6215080409040E1F700C00000DCCF33
:100210008A319105E0F020918201309183012931EA
:10022000310508F07BC02091800130918101293196
:10023000310508F069C00E94BC002FEF87EA91E603
:10024000215080409040E1F700C00000BDCF8931CF
:10025000910508F067C02091820130918301293116
:10026000310598F420918001309181012A313105C6
:1002700060F00E94CB002FEF87EA91E6215080408A
:100280009040E1F700C000009FCF209182013091A3
:1002900083012A31310508F449C020918001309151
:1002A000810129313105A0F50E94AD008DCF8A3141
:1002B000910588F020918201309183012A31310526
:1002C000D8F020918001309181012931310518F554
:1002D0000E94AD0079CF499778F480918201909186
:1002E00083014A9748F080918001909181014A975B
:1002F00018F00E94AD0068CF0E94AD0065CF8A3132
:10030000910508F0AFCFA7CF89319105A8F7AACF03
:100310008A31910578F0499730F3EECF8931910514
:1003200030F6B3CF8A31910528F6E6CF8A319105B0
:1003300018F7D1CF4997B8F2DFCFEF92FF920F9322
:100340001F93CF93DF931F9281E08F930F2EFCE4D6
:10035000EF2EF1E0FF2EF02DFF92EF920E94730539
:10036000C2E9D1E0DF93CF930DE711E01F930F9324
:100370000E9489051F9282E08F93FF92EF920E9464
:1003800073058AE991E09F938F931F930F930E94C7
:100390008905888187BD888588BD1BB815B82BB1B4
:1003A0008C819D81AC01440F551F440F551F8E81D8
:1003B0009F8182959295907F9827807F9827842BA4
:1003C000822B8BB925B18E859F8582959295907FE2
:1003D0009827807F98279C85922B892B85B98F85BC
:1003E0008F938E858F938D858F938C858F938F813F
:1003F0008F938E818F938D818F938C818F9389853D
:100400008F9388858F9389818F9388818F938EE6D0
:1004100091E09F938F930E9473058DB79EB74E9680
:100420000FB6F8949EBF0FBE8DBFDF91CF911F9185
:100430000F91FF90EF90089584B5826084BD89EF9D
:1004400087BDEEE6F0E080818260808385B58360C1
:1004500085BD08951F920F920FB60F9211242F930E
:100460003F934F935F936F937F938F939F93AF933C
:10047000BF93CF93DF93EF93FF9389B1887089B9CE
:10048000811112C0C1E0D0E078940E941C02D09388
:100490008901C0938801D0938701C093860189B1F7
:1004A000887089B9882381F3FF91EF91DF91CF9113
:1004B000BF91AF919F918F917F916F915F914F917C
:1004C0003F912F910F900FBE0F901F90189585B5FB
:1004D0008C7F85BD0895CF93DF93EC0184B5826056
:1004E00084BD89EF87BD0E94670285B5836085BDA5
:1004F000209761F0CE0120E030E042E0A99BFECFE2
:1005000045BB2F5F3F4F28173907C1F7DF91CF91C8
:100510000895CF93DF93EC0184B5826084BD8FE0B2
:1005200087BD0E94670285B5816085BD209761F017
:10053000CE0120E030E042E0A99BFECF45BB2F5F1B
:100540003F4F28173907C1F7DF91CF91089584B540
:10055000826084BD8FE587BDEEE6F0E08081826039
:10056000808378940E94670285B5816085BD089577
:10057000CF93DF938130910509F051C05298539A7F
:100580005B9882E090E00E9489025B9A8AE090E0AA
:100590000E9489025B980E94A70280918A01909133
:1005A0008B01A0918C01B0918D01892B8A2B8B2B13
:1005B000A1F380918A0190918B01A0918C01B0915F
:1005C0008D01AC01BD01440F551F661F771F840FBD
:1005D000951FA61FB71FBC01CD01660F771F881F8F
:1005E000991F0E94780426E933E44BE05DE30E9402
:1005F000060520E030E040E05FE30E9406050E942F
:100600004904EB0110928A0110928B0110928C0127
:1006100010928D018CE390E00E946B02A8C08230A2
:10062000910509F051C05498559A5D9882E090E088
:100630000E9489025D9A8AE090E00E9489025D989A
:100640000E94A70280918A0190918B01A0918C0158
:10065000B0918D01892B8A2B8B2BA1F380918A017C
:1006600090918B01A0918C01B0918D01AC01BD01E5
:10067000440F551F661F771F840F951FA61FB71FB6
:10068000BC01CD01660F771F881F991F0E94780457
:1006900026E933E44BE05DE30E94060520E030E00C
:1006A00040E05FE30E9406050E944904EB011092BE
:1006B0008A0110928B0110928C0110928D018CE3B3
:1006C00090E00E946B0253C0039709F050C0569807
:1006D000579A5F9882E090E00E9489025F9A8AE0D0
:1006E00090E00E9489025F980E94A70280918A018F
:1006F00090918B01A0918C01B0918D01892B8A2B57
:100700008B2BA1F380918A0190918B01A0918C0198
:10071000B0918D01AC01BD01440F551F661F771FBD
:10072000840F951FA61FB71FBC01CD01660F771F51
:10073000881F991F0E94780426E933E44BE05DE3AB
:100740000E94060520E030E040E05FE30E940605DD
:100750000E944904EB0110928A0110928B011092C1
:100760008C0110928D018CE390E00E946B02CE010F
:10077000DF91CF9108951F920F920FB60F9211241F
:100780002F933F938F939F93AF93BF9389B129B1D9
:1007900099B1382F3470822F8071832B9074892BFC
:1007A000A1F080918E0190918F01A0919001B09164
:1007B00091010196A11DB11D80938E0190938F012F
:1007C000A0939001B093910125C080918E019091EA
:1007D0008F01A0919001B0919101892B8A2B8B2BD5
:1007E000C9F080918E0190918F01A0919001B091FC
:1007F000910180938A0190938B01A0938C01B09317
:100800008D0110928E0110928F0110929001109222
:10081000910115BCBF91AF919F918F913F912F9105
:100820000F900FBE0F901F901895CF93C82F8A304E
:1008300019F48DE00E941504E0ECF0E0808185FF62
:10084000FDCFC093C600CF910895E0ECF0E0808129
:100850008823ECF78091C60008951092C50087E6C2
:100860008093C400E0ECF0E080818D7F808386E09F
:100870008093C20088E18093C1000895E2EAF1E02C
:100880008EE091E09383828380E091E09183808386
:1008900008950E94E50488F09F5798F0B92F992792
:1008A000B751B0F0E1F0660F771F881F991F1AF05B
:1008B000BA95C9F714C0B13091F00E94FF04B1E0BD
:1008C00008950C94FF04672F782F8827B85F39F0BC
:1008D000B93FCCF3869577956795B395D9F73EF4F4
:1008E00090958095709561957F4F8F4F9F4F08959C
:1008F000E89409C097FB3EF49095809570956195BA
:100900007F4F8F4F9F4F9923A9F0F92F96E9BB276F
:100910009395F695879577956795B795F111F8CFEB
:10092000FAF4BB0F11F460FF1BC06F5F7F4F8F4F56
:100930009F4F16C0882311F096E911C0772321F04C
:100940009EE8872F762F05C0662371F096E8862FE4
:1009500070E060E02AF09A95660F771F881FDAF73B
:10096000880F9695879597F9089597F99F6780E87E
:1009700070E060E008959FEF80EC089500240A94F1
:100980001616170618060906089500240A9412166A
:100990001306140605060895092E0394000C11F49D
:1009A000882352F0BB0F40F4BF2B11F460FF04C04A
:1009B0006F5F7F4F8F4F9F4F089557FD9058440FA3
:1009C000551F59F05F3F71F04795880F97FB991FAE
:1009D00061F09F3F79F0879508951216130614066B
:1009E000551FF2CF4695F1DF08C0161617061806F8
:1009F000991FF1CF86957105610508940895E894D3
:100A0000BB2766277727CB0197F908950E94190520
:100A10000C94CC040E94BE0438F00E94C50420F05F
:100A2000952311F00C94B5040C94BB0411240C9480
:100A300000050E94DD0470F3959FC1F3950F50E00F
:100A4000551F629FF001729FBB27F00DB11D639F80
:100A5000AA27F00DB11DAA1F649F6627B00DA11D26
:100A6000661F829F2227B00DA11D621F739FB00DCC
:100A7000A11D621F839FA00D611D221F749F33273C
:100A8000A00D611D231F849F600D211D822F762FD5
:100A90006A2F11249F5750409AF0F1F088234AF0B2
:100AA000EE0FFF1FBB1F661F771F881F915050401E
:100AB000A9F79E3F510580F00C94B5040C940005F5
:100AC0005F3FE4F3983ED4F3869577956795B795A5
:100AD000F795E7959F5FC1F7FE2B880F911D9695BF
:100AE000879597F90895A0E0B0E0E9E7F5E00C9468
:100AF0005B0BAE014B5F5F4FFA0161917191AF01EA
:100B00008091A4019091A5010E949F05E2E00C94C0
:100B1000770BA0E0B0E0EFE8F5E00C945B0BAE01E2
:100B20004B5F5F4FFA0161917191AF018091A2011A
:100B30009091A3010E941C09E2E00C94770BABE0BA
:100B4000B0E0E5EAF5E00C944B0B6C017B018A0107
:100B5000FC0117821682838181FFCCC1CE010196F0
:100B60003C01F6019381F70193FD859193FF8191FB
:100B70007F01882309F4BAC1853239F493FD859148
:100B800093FF81917F01853229F4B60190E00E94A4
:100B9000950AE7CF912C212C312CFFE1F315D8F0E9
:100BA0008B3279F038F4803279F08332A1F4232D3E
:100BB00020611DC08D3261F0803369F4232D2160E6
:100BC00016C0832D8260382EE32DE4603E2E2AC0AD
:100BD000F32DF8601DC037FC2DC020ED280F2A3002
:100BE00040F08E32B9F436FC81C1232D2064322EC0
:100BF00019C036FE06C08AE0989E200D1124922E60
:100C000011C0EAE02E9E200D1124222EF32DF06259
:100C10003F2E08C08C3621F4832D8068382E02C008
:100C2000883641F4F70193FD859193FF81917F010F
:100C30008111B3CF982F9F7D9554933028F40C5F8A
:100C40001F4F9FE399830DC0833631F0833771F0D6
:100C5000833509F059C021C0F801808189830E5F76
:100C60001F4F88248394912C530113C02801F2E074
:100C70004F0E511CF801A080B18036FE03C0692DD3
:100C800070E002C06FEF7FEFC5010E944C0A4C017B
:100C90008201F32DFF773F2E16C0280122E0420E7D
:100CA000511CF801A080B18036FE03C0692D70E0B0
:100CB00002C06FEF7FEFC5010E94410A4C01F32D86
:100CC000F0683F2E820133FC1BC0822D90E0881615
:100CD0009906B0F4B60180E290E00E94950A2A9449
:100CE000F4CFF50137FC859137FE81915F01B601A4
:100CF00090E00E94950A21102A9421E0821A91081E
:100D00008114910471F7E8C0843611F0893641F5F9
:100D1000F80137FE07C060817181828193810C5F89
:100D20001F4F08C060817181072E000C880B990B42
:100D30000E5F1F4FF32DFF763F2E97FF09C0909552
:100D40008095709561957F4F8F4F9F4FF0683F2E34
:100D50002AE030E0A3010E94EA0A882E861845C0E6
:100D6000853731F4232D2F7EB22E2AE030E025C0C6
:100D7000932D997FB92E8F36C1F018F4883579F00C
:100D8000B5C0803719F0883721F0B0C0E92FE06195
:100D9000BE2EB4FE0DC0FB2DF460BF2E09C034FE84
:100DA0000AC0292F2660B22E06C028E030E005C018
:100DB00020E130E002C020E132E0F801B7FE07C0D8
:100DC00060817181828193810C5F1F4F06C06081B9
:100DD000718180E090E00E5F1F4FA3010E94EA0A3C
:100DE000882E8618FB2DFF773F2E36FE0DC0232D53
:100DF0002E7FA22E891458F434FE0BC032FC09C099
:100E0000832D8E7EA82E05C0B82CA32C03C0B82C31
:100E100001C0B92CA4FE0FC0FE01E80DF11D8081B8
:100E2000803321F49A2D997EA92E09C0A2FE06C016
:100E3000B394B39404C08A2D867809F0B394A3FCCC
:100E400011C0A0FE06C0B21488F4280C922C9B1886
:100E50000EC0B21460F4B60180E290E00E94950AE0
:100E6000B394F7CFB21418F42B1802C0982C212C8D
:100E7000A4FE10C0B60180E390E00E94950AA2FE95
:100E800017C0A1FC03C088E790E002C088E590E0AD
:100E9000B6010CC08A2D867859F0A1FE02C08BE203
:100EA00001C080E2A7FC8DE2B60190E00E94950AA5
:100EB000891438F4B60180E390E00E94950A9A9470
:100EC000F7CF8A94F301E80DF11D8081B60190E01F
:100ED0000E94950A8110F5CF222009F442CEB60176
:100EE00080E290E00E94950A2A94F6CFF60186816E
:100EF000978102C08FEF9FEF2B96E2E10C94670B76
:100F000020FD09C0FC0123FD05C022FF02C0738340
:100F1000628351834083089544FD17C046FD17C086
:100F2000AB01BC01DA01FB01AA0FBB1FEE1FFF1FC3
:100F30001094D1F74A0F5B1F6E1F7F1FCB01BA01C0
:100F4000660F771F881F991F09C033E001C034E086
:100F5000660F771F881F991F3150D1F7620F711DDF
:100F6000811D911D08950F931F93CF93DF938C01E3
:100F7000C8010E94570AEC0197FD08C00E942D0A83
:100F8000892BB1F7B801CE010E94D10ACE01DF91C1
:100F9000CF911F910F9108958F929F92AF92BF9220
:100FA000EF92FF920F931F93CF93DF938C01D62F75
:100FB0007A01B22E0E94570A9C0133272B32310549
:100FC00031F02D32310561F48B2D8068B82ED1506F
:100FD00011F480E068C0C8010E94570A97FDF9CF5C
:100FE000CB2DCD7F2B2D207309F58033F9F4AA2466
:100FF000AA94AD0E09F443C0C8010E94570A97FD98
:101000003EC09C012F7D33272835310549F4C26449
:10101000D250A9F1C8010E94570A97FF07C02FC0FC
:10102000B6FE02C0C26001C0C261DA2D812C912CD3
:10103000540120ED280F283080F0C4FF04C0B8010F
:101040000E94D10A19C02A3040F0C6FFF8CF2F7D88
:101050003FEE320F363098F727504C2FC501B401C0
:101060000E948C074B015C01C260D15059F0C8014D
:101070000E94570A97FFDDCFC1FD04C0AACF812C83
:10108000912C5401C7FF08C0B094A0949094809410
:10109000811C911CA11CB11C2C2FB501A401C701FE
:1010A0000E94800781E0DF91CF911F910F91FF9007
:1010B000EF90BF90AF909F908F900895A0E2B0E026
:1010C000E4E6F8E00C944E0B5C01962E7A01F901EF
:1010D0008E010F5F1F4F680180E2D8011D928A9533
:1010E000E9F7D50113968C9080E090E0612C712C8B
:1010F00030E061E070E083FC259183FE21918F0157
:10110000522E211103C080E090E092C02E3511F4E0
:10111000009751F1432F50E0481759073CF42D3503
:1011200059F12D3219F4772009F103C0772009F421
:101130006AC0452D469546954695D601A40FB11D2A
:10114000452D47708B0102C0000F111F4A95E2F731
:10115000A8015C91452B4C93651459F0561410F47A
:101160005394E7CF5A94E5CF31E004C077247394C9
:1011700001C0712C0196BFCF772019F08E8180625B
:101180008E83311103C08824839417C0F6019E0119
:101190002F5D3F4F8081809581932E173F07D1F7B8
:1011A000F2CFE114F10429F0D7018C93F7013196C5
:1011B0007F019A94812C9920F9F0C5010E94570A69
:1011C00097FD18C0FC01FF2723E0F595E7952A95C8
:1011D000E1F7EC0DFD1D208130E0AC014770552793
:1011E00002C0359527954A95E2F720FDDACFB50183
:1011F0000E94D10A811087CFE114F10411F0D701C8
:101200001C92C80115C0422F469546954695D601B9
:10121000A40FB11D422F47708B0102C0000F111F98
:101220004A95E2F7A8015C91452B4C93622EA2CF20
:10123000A096EFE00C946A0BA0E0B0E0E2E2F9E0E7
:101240000C944E0B6C01EB015A01FC0117821682C3
:10125000512CF601E380FE01E3FC8591E3FE8191D0
:10126000182FEF01882309F4EEC090E00E942D0AA8
:10127000892B21F0C6010E94B307EBCF153241F450
:10128000FE01E3FC1591E3FE1191EF01153281F4AB
:10129000C6010E94570A97FDD4C0412F50E09C011F
:1012A000332724173507A9F2B6010E94D10ACBC013
:1012B0001A3239F4E3FC1591E3FE1191EF0101E0DC
:1012C00001C000E0F12C20ED210F2A3080F40260F3
:1012D0006F2D70E080E090E040E20E948C07F62ED7
:1012E000FE01E3FC1591E3FE1191EF01ECCF01FF4C
:1012F00003C0F11003C0A7C0FF24FA94183619F0F8
:101300001C3651F010C0FE01E3FC1591E3FE119173
:10131000EF01183641F408600460FE01E3FC15910A
:10132000E3FE1191EF01112309F48DC0612F70E0EC
:1013300088E690E00E94360A892B09F484C000FDFB
:1013400007C0F50180809180C50102965C0102C052
:10135000812C912C1E3651F4F6014681578160E0B4
:1013600070E0202FC4010E94800773CF1336A9F4C8
:1013700001FD02C0FF24F394C6010E94570A97FDA5
:1013800060C08114910429F0F4018083C4010196A6
:101390004C01FA94F110F0CF50C01B3559F49E0166
:1013A000A4016F2DC6010E945E08EC01892B09F093
:1013B00044C03EC0C6010E94B30797FD42C01F361D
:1013C00061F128F4143639F1193651F128C0133778
:1013D00071F0153701F123C08114910429F0F40153
:1013E0006082C40101964C01FA94FF2071F0C6019D
:1013F0000E94570A3C0197FD08C00E942D0A892BC4
:1014000059F3B601C3010E94D10A81149104A9F0D5
:10141000F401108212C0006203C0006101C00064C8
:10142000202FA4016F2DC6010E94CC07811105C099
:10143000F6018381807329F406C000FD0ACF53941E
:1014400008CF552019F0852D90E002C08FEF9FEF57
:10145000CDB7DEB7EFE00C946A0B91110C94480BFA
:10146000803219F089508550C8F70895FC01059025
:10147000061621F00020D9F7C00108953197CF0159
:101480000895FC010590615070400110D8F78095D7
:1014900090958E0F9F1F0895FC0161507040019040
:1014A0000110D8F7809590958E0F9F1F0895CF93C8
:1014B000DF93EC012B8120FF33C026FF0AC02F7B76
:1014C0002B838E819F8101969F838E838A8190E0FA
:1014D00029C022FF0FC0E881F9818081082E000C0D
:1014E000990B009719F420622B831AC03196F98367
:1014F000E8830EC0EA85FB85099597FF09C02B811B
:10150000019611F080E201C080E1822B8B8308C03C
:101510002E813F812F5F3F4F3F832E83992702C04B
:101520008FEF9FEFDF91CF9108950F931F93CF938C
:10153000DF93FB01238121FD03C08FEF9FEF2CC0C0
:1015400022FF16C0468157812481358142175307F7
:1015500044F4A081B1819D012F5F3F4F31832083EF
:101560008C93268137812F5F3F4F3783268314C0AA
:101570008B01EC01FB010084F185E02D0995892B9D
:10158000E1F6D80116968D919C91179701961796C2
:101590009C938E931697CE01DF91CF911F910F915F
:1015A0000895FB01238120FF12C026FD10C08F3F4C
:1015B0003FEF930761F082832F7D20642383268190
:1015C00037812150310937832683992708958FEF7A
:1015D0009FEF0895FA01AA27283051F1203181F1B7
:1015E000E8946F936E7F6E5F7F4F8F4F9F4FAF4F2B
:1015F000B1E03ED0B4E03CD0670F781F891F9A1F3E
:10160000A11D680F791F8A1F911DA11D6A0F711DF1
:10161000811D911DA11D20D009F468943F912AE0FD
:10162000269F11243019305D3193DEF6CF010895E5
:10163000462F4770405D4193B3E00FD0C9F7F6CF16
:10164000462F4F70405D4A3318F0495D31FD4052DE
:10165000419302D0A9F7EACFB4E0A6959795879574
:1016600077956795BA95C9F7009761057105089553
:101670009B01AC010A2E06945795479537952795FF
:10168000BA95C9F7620F731F841F951FA01D089597
:101690009927882708952F923F924F925F926F92D9
:1016A0007F928F929F92AF92BF92CF92DF92EF92F2
:1016B000FF920F931F93CF93DF93CDB7DEB7CA1B73
:1016C000DB0B0FB6F894DEBF0FBECDBF09942A889E
:1016D000398848885F846E847D848C849B84AA8446
:1016E000B984C884DF80EE80FD800C811B81AA81D3
:1016F000B981CE0FD11D0FB6F894DEBF0FBECDBF9E
:08170000ED010895F894FFCFFC
:1017080000000001000000000000250400000000A7
:1017180000020000000015040000000053656E730D
:101728006F72313A20256420636D0A0053656E7329
:101738006F72323A20256420636D0A0053656E7318
:101748006F72333A20256420636D0A000A506C6575
:101758006173652067697665204D6F746F72202309
:1017680025642050574D206379636C653A002564E1
:101778002025642025642025642025642025640014
:00000001FF
