S02400004C6566742077616C6C20666F6C6C6F77657220616C676F726974686D2E7372656334
S11300000C9434000C9451000C9418010C9451007D
S11300100C9451000C9451000C9451000C94510018
S11300200C9451000C9451000C9451000C94510008
S11300300C9451000C9451000C94A9020C9451009E
S11300400C9451000C9451000C9451000C945100E8
S11300500C9451000C9451000C9451000C945100D8
S11300600C9451000C94510011241FBECFEFD8E022
S1130070DEBFCDBF11E0A0E0B1E0E2EEFEE002C0E1
S113008005900D92AC35B107D9F721E0ACE5B1E0AC
S113009001C01D92A437B207E1F70E94A7000C9497
S11300A06F070C94000081E090E00E94A601809309
S11300B06001909361019F938F938CE191E09F93F2
S11300C08F930E9461042FEF83ED90E321508040D1
S11300D09040E1F700C0000082E090E00E94A60199
S11300E080935E0190935F019F938F938CE291E0E4
S11300F09F938F930E9461042FEF83ED90E321502F
S113010080409040E1F700C0000083E090E00E944E
S1130110A60180935C0190935D019F938F938CE380
S113012091E09F938F930E9461042FEF83ED90E3FE
S1130130215080409040E1F700C000008DB79EB789
S11301400C960FB6F8949EBF0FBE8DBF08950E9403
S11301501B030E942C038AB1886A8AB98AB18B7AFC
S11301608AB98CE491E00E947704809161018F93B5
S1130170809160018F93C3E5D1E0DF93CF930E9418
S1130180610480915F018F9380915E018F93DF936F
S1130190CF930E94610480915D018F9380915C01F3
S11301A08F93DF93CF930E9461048DB79EB70C9613
S11301B00FB6F8949EBF0FBE8DBF88E591E00E94F4
S11301C077040E945300809161018F9380916001B4
S11301D08F93DF93CF930E94610480915F018F938B
S11301E080915E018F93DF93CF930E94610480918D
S11301F05D018F9380915C018F93DF93CF930E9475
S113020061048DB79EB70C960FB6F8949EBF0FBECF
S11302108DBFD3CF84B5826084BD89EF87BDEEE600
S1130220F0E080818260808385B5836085BD089518
S11302301F920F920FB60F9211242F933F934F9357
S11302405F936F937F938F939F93AF93BF93CF935A
S1130250DF93EF93FF9389B1887089B9811112C03C
S1130260C1E0D0E078940E940A01D0936501C09364
S11302706401D0936301C093620189B1887089B924
S1130280882381F3FF91EF91DF91CF91BF91AF91DB
S11302909F918F917F916F915F914F913F912F919A
S11302A00F900FBE0F901F90189585B58C7F85BD5C
S11302B00895CF93DF93EC0184B5826084BD89EF08
S11302C087BD0E94550185B5836085BD209761F087
S11302D0CE0120E030E042E0A99BFECF45BB2F5F7A
S11302E03F4F28173907C1F7DF91CF910895CF9376
S11302F0DF93EC0184B5826084BD8FE087BD0E94EA
S1130300550185B5816085BD209761F0CE0120E05F
S113031030E042E0A99BFECF45BB2F5F3F4F28173B
S11303203907C1F7DF91CF91089584B5826084BD08
S11303308FE587BDEEE6F0E080818260808378946B
S11303400E94550185B5816085BD0895CF93DF93E3
S11303508130910509F051C05298539A5B9882E01C
S113036090E00E9477015B9A8AE090E00E94770116
S11303705B980E9495018091660190916701A0911C
S11303806801B0916901892B8A2B8B2BA1F3809191
S1130390660190916701A0916801B0916901AC0177
S11303A0BD01440F551F661F771F840F951FA61F9D
S11303B0B71FBC01CD01660F771F881F991F0E94CC
S11303C0660326E933E44BE05DE30E94F40320E096
S11303D030E040E05FE30E94F4030E943703EB0146
S11303E010926601109267011092680110926901DF
S11303F08CE390E00E945901A8C08230910509F075
S113040051C05498559A5D9882E090E00E9477011B
S11304105D9A8AE090E00E9477015D980E949501C0
S11304208091660190916701A0916801B091690182
S1130430892B8A2B8B2BA1F3809166019091670104
S1130440A0916801B0916901AC01BD01440F551F31
S1130450661F771F840F951FA61FB71FBC01CD0110
S1130460660F771F881F991F0E94660326E933E4ED
S11304704BE05DE30E94F40320E030E040E05FE302
S11304800E94F4030E943703EB011092660110925C
S1130490670110926801109269018CE390E00E9458
S11304A0590153C0039709F050C05698579A5F9862
S11304B082E090E00E9477015F9A8AE090E00E94D7
S11304C077015F980E949501809166019091670180
S11304D0A0916801B0916901892B8A2B8B2BA1F320
S11304E08091660190916701A0916801B0916901C2
S11304F0AC01BD01440F551F661F771F840F951F64
S1130500A61FB71FBC01CD01660F771F881F991F57
S11305100E94660326E933E44BE05DE30E94F403A2
S113052020E030E040E05FE30E94F4030E943703E0
S1130530EB0110926601109267011092680110920B
S113054069018CE390E00E945901CE01DF91CF91C3
S113055008951F920F920FB60F9211242F933F9379
S11305608F939F93AF93BF9389B129B199B1382FDA
S11305703470822F8071832B9074892BA1F0809129
S11305806A0190916B01A0916C01B0916D0101968B
S1130590A11DB11D80936A0190936B01A0936C011E
S11305A0B0936D0125C080916A0190916B01A09177
S11305B06C01B0916D01892B8A2B8B2BC9F0809132
S11305C06A0190916B01A0916C01B0916D018093CF
S11305D0660190936701A0936801B093690110923A
S11305E06A0110926B0110926C0110926D0115BC9E
S11305F0BF91AF919F918F913F912F910F900FBE1B
S11306000F901F901895CF93C82F8A3019F48DE05E
S11306100E940303E0ECF0E0808185FFFDCFC093EE
S1130620C600CF910895E0ECF0E080818823ECF7D8
S11306308091C60008951092C50087E68093C40097
S1130640E0ECF0E080818D7F808386E08093C200BF
S113065088E18093C1000895EEE6F1E08EE091E038
S11306609383828380E091E09183808308950E9444
S1130670D30388F09F5798F0B92F9927B751B0F05A
S1130680E1F0660F771F881F991F1AF0BA95C9F712
S113069014C0B13091F00E94ED03B1E008950C94C0
S11306A0ED03672F782F8827B85F39F0B93FCCF373
S11306B0869577956795B395D9F73EF4909580958F
S11306C0709561957F4F8F4F9F4F0895E89409C0AF
S11306D097FB3EF490958095709561957F4F8F4F71
S11306E09F4F9923A9F0F92F96E9BB279395F69587
S11306F0879577956795B795F111F8CFFAF4BB0F05
S113070011F460FF1BC06F5F7F4F8F4F9F4F16C068
S1130710882311F096E911C0772321F09EE8872FF2
S1130720762F05C0662371F096E8862F70E060E0AE
S11307302AF09A95660F771F881FDAF7880F969527
S1130740879597F9089597F99F6780E870E060E0CE
S113075008959FEF80EC089500240A941616170656
S113076018060906089500240A941216130614069E
S113077005060895092E0394000C11F4882352F001
S1130780BB0F40F4BF2B11F460FF04C06F5F7F4FB9
S11307908F4F9F4F089557FD9058440F551F59F0A0
S11307A05F3F71F04795880F97FB991F61F09F3F5A
S11307B079F087950895121613061406551FF2CF83
S11307C04695F1DF08C0161617061806991FF1CFD3
S11307D086957105610508940895E894BB276627FA
S11307E07727CB0197F908950E9407040C94BA0364
S11307F00E94AC0338F00E94B30320F0952311F05B
S11308000C94A3030C94A90311240C94EE030E94EA
S1130810CB0370F3959FC1F3950F50E0551F629F72
S1130820F001729FBB27F00DB11D639FAA27F00D45
S1130830B11DAA1F649F6627B00DA11D661F829F6C
S11308402227B00DA11D621F739FB00DA11D621F51
S1130850839FA00D611D221F749F3327A00D611D6E
S1130860231F849F600D211D822F762F6A2F112450
S11308709F5750409AF0F1F088234AF0EE0FFF1F83
S1130880BB1F661F771F881F91505040A9F79E3FDA
S1130890510580F00C94A3030C94EE035F3FE4F342
S11308A0983ED4F3869577956795B795F795E79530
S11308B09F5FC1F7FE2B880F911D9695879597F939
S11308C00895A0E0B0E0E7E6F4E00C944807AE0138
S11308D04B5F5F4FFA0161917191AF01809170019B
S11308E0909171010E94A704E2E00C9464070F93B5
S11308F01F93CF93DF93E0917001F09171012381F5
S113090021FF1BC08C01D0E0C0E0F80181918F0170
S11309106091700170917101DB011896ED91FC9169
S11309201997882331F00995892B79F3DFEFCFEFFD
S1130930ECCF8AE00995892B19F08FEF9FEF02C065
S11309408D2F9C2FDF91CF911F910F910895ABE0D4
S1130950B0E0EDEAF4E00C9438076C017B018A0105
S1130960FC0117821682838181FFCCC1CE010196DE
S11309703C01F6019381F70193FD859193FF8191E9
S11309807F01882309F4BAC1853239F493FD859136
S113099093FF81917F01853229F4B60190E00E9492
S11309A09E06E7CF912C212C312CFFE1F315D8F0D2
S11309B08B3279F038F4803279F08332A1F4232D2C
S11309C020611DC08D3261F0803369F4232D2160D4
S11309D016C0832D8260382EE32DE4603E2E2AC09B
S11309E0F32DF8601DC037FC2DC020ED280F2A30F0
S11309F040F08E32B9F436FC81C1232D2064322EAE
S1130A0019C036FE06C08AE0989E200D1124922E4D
S1130A1011C0EAE02E9E200D1124222EF32DF06247
S1130A203F2E08C08C3621F4832D8068382E02C0F6
S1130A30883641F4F70193FD859193FF81917F01FD
S1130A408111B3CF982F9F7D9554933028F40C5F78
S1130A501F4F9FE399830DC0833631F0833771F0C4
S1130A60833509F059C021C0F801808189830E5F64
S1130A701F4F88248394912C530113C02801F2E062
S1130A804F0E511CF801A080B18036FE03C0692DC1
S1130A9070E002C06FEF7FEFC5010E9493064C0126
S1130AA08201F32DFF773F2E16C0280122E0420E6B
S1130AB0511CF801A080B18036FE03C0692D70E09E
S1130AC002C06FEF7FEFC5010E9488064C01F32D31
S1130AD0F0683F2E820133FC1BC0822D90E0881603
S1130AE09906B0F4B60180E290E00E949E062A9432
S1130AF0F4CFF50137FC859137FE81915F01B60192
S1130B0090E00E949E0621102A9421E0821A910806
S1130B108114910471F7E8C0843611F0893641F5E7
S1130B20F80137FE07C060817181828193810C5F77
S1130B301F4F08C060817181072E000C880B990B30
S1130B400E5F1F4FF32DFF763F2E97FF09C0909540
S1130B508095709561957F4F8F4F9F4FF0683F2E22
S1130B602AE030E0A3010E94DA06882E861845C0E8
S1130B70853731F4232D2F7EB22E2AE030E025C0B4
S1130B80932D997FB92E8F36C1F018F4883579F0FA
S1130B90B5C0803719F0883721F0B0C0E92FE06183
S1130BA0BE2EB4FE0DC0FB2DF460BF2E09C034FE72
S1130BB00AC0292F2660B22E06C028E030E005C006
S1130BC020E130E002C020E132E0F801B7FE07C0C6
S1130BD060817181828193810C5F1F4F06C06081A7
S1130BE0718180E090E00E5F1F4FA3010E94DA063E
S1130BF0882E8618FB2DFF773F2E36FE0DC0232D41
S1130C002E7FA22E891458F434FE0BC032FC09C086
S1130C10832D8E7EA82E05C0B82CA32C03C0B82C1F
S1130C2001C0B92CA4FE0FC0FE01E80DF11D8081A6
S1130C30803321F49A2D997EA92E09C0A2FE06C004
S1130C40B394B39404C08A2D867809F0B394A3FCBA
S1130C5011C0A0FE06C0B21488F4280C922C9B1874
S1130C600EC0B21460F4B60180E290E00E949E06C9
S1130C70B394F7CFB21418F42B1802C0982C212C7B
S1130C80A4FE10C0B60180E390E00E949E06A2FE7E
S1130C9017C0A1FC03C088E790E002C088E590E09B
S1130CA0B6010CC08A2D867859F0A1FE02C08BE2F1
S1130CB001C080E2A7FC8DE2B60190E00E949E068E
S1130CC0891438F4B60180E390E00E949E069A9459
S1130CD0F7CF8A94F301E80DF11D8081B60190E00D
S1130CE00E949E068110F5CF222009F442CEB6015F
S1130CF080E290E00E949E062A94F6CFF601868157
S1130D00978102C08FEF9FEF2B96E2E10C9454077A
S1130D10FC010590615070400110D8F780959095C2
S1130D208E0F9F1F0895FC016150704001900110C7
S1130D30D8F7809590958E0F9F1F08950F931F935A
S1130D40CF93DF93FB01238121FD03C08FEF9FEF3E
S1130D502CC022FF16C04681578124813581421759
S1130D60530744F4A081B1819D012F5F3F4F31832C
S1130D7020838C93268137812F5F3F4F37832683CF
S1130D8014C08B01EC01FB010084F185E02D099571
S1130D90892BE1F6D80116968D919C9117970196AF
S1130DA017969C938E931697CE01DF91CF911F9146
S1130DB00F910895FA01AA27283051F1203181F1C9
S1130DC0E8946F936E7F6E5F7F4F8F4F9F4FAF4F4F
S1130DD0B1E03ED0B4E03CD0670F781F891F9A1F62
S1130DE0A11D680F791F8A1F911DA11D6A0F711D16
S1130DF0811D911DA11D20D009F468943F912AE022
S1130E00269F11243019305D3193DEF6CF01089509
S1130E10462F4770405D4193B3E00FD0C9F7F6CF3A
S1130E20462F4F70405D4A3318F0495D31FD405202
S1130E30419302D0A9F7EACFB4E0A6959795879598
S1130E4077956795BA95C9F7009761057105089577
S1130E509B01AC010A2E0694579547953795279523
S1130E60BA95C9F7620F731F841F951FA01D0895BB
S1130E702F923F924F925F926F927F928F929F92A6
S1130E80AF92BF92CF92DF92EF92FF920F931F9394
S1130E90CF93DF93CDB7DEB7CA1BDB0B0FB6F89445
S1130EA0DEBF0FBECDBF09942A88398848885F8485
S1130EB06E847D848C849B84AA84B984C884DF80F6
S1130EC0EE80FD800C811B81AA81B981CE0FD11DDA
S1130ED00FB6F894DEBF0FBECDBFED010895F894B0
S1050EE0FFCF3E
S1130EE200000001000000000000130300000000E5
S1130EF200020000000003030000000053656E734B
S1130F026F72313A20256420636D0A0053656E7353
S1130F126F72323A20256420636D0A0053656E7342
S1130F226F72333A20256420636D0A0048656C6C45
S10F0F326F20002564200A00486920009C
S9030000FC
