:100000000C9434000C9451000C9451000C94510049
:100010000C9451000C9451000C9451000C9451001C
:100020000C9451000C9451000C9451000C94490311
:100030000C9451000C9451000C9451000C945100FC
:100040000C9451000C9451000C9451000C945100EC
:100050000C9451000C9451000C9451000C945100DC
:100060000C9451000C94510011241FBECFEFD8E026
:10007000DEBFCDBF11E0A0E0B1E0EAE4F3E102C0F1
:1000800005900D92A83DB107D9F721E0A8EDB1E0A8
:1000900001C01D92AA3EB207E1F70E9453000C94E2
:1000A000A3090C9400000E942F040E9470040E9477
:1000B000810480E00E94BA03EC0182E00E94BA034E
:1000C0008C0181E00E94BA037C01DF93CF938CE125
:1000D00091E09F938F930E949506FF92EF9287E2A3
:1000E00091E09F938F930E9495061F930F9381E356
:1000F00091E09F938F930E9495068DB79EB70C96C3
:100100000FB6F8949EBF0FBE8DBFC431D10508F065
:1001100052C00931110508F04EC099E1E916F10409
:1001200008F049C08DE391E00E94AB06E016F106AD
:1001300008F54CE36CE384E00E94CF0283E591E094
:100140000E94AB062FEF83ED90E32150804090405A
:10015000E1F700C000004CE36CE383E00E94CF02B3
:100160002FEF83ED90E3215080409040E1F700C0F5
:1001700000009FCF4CE36CE384E00E94CF0283E554
:1001800091E00E94AB062FEF83ED90E32150804079
:100190009040E1F700C000004CE36CE382E00E9475
:1001A000CF022FEF83ED90E3215080409040E1F7A4
:1001B00000C000007ECFC431D10508F052C00A3122
:1001C000110508F44EC02AE1E216F10408F449C012
:1001D0008CE591E00E94AB06E016F10608F54CE3D1
:1001E0006CE384E00E94CF0283E591E00E94AB06BD
:1001F0008FEF93ED20E3815090402040E1F700C065
:1002000000004CE36CE383E00E94CF028FEF9AED95
:100210002AE1815090402040E1F700C0000049CF22
:100220004CE36CE384E00E94CF0283E591E00E94FE
:10023000AB068FEF93ED20E3815090402040E1F733
:1002400000C000004CE36CE382E00E94CF028FEF1D
:100250009AED2AE1815090402040E1F700C0000073
:1002600028CFC431D10508F049C00A31110508F47E
:1002700045C089E1E816F10408F040C04CE36CE3A6
:1002800084E00E94CF028DE691E00E94AB069FEFD2
:1002900023ED80E3915020408040E1F700C0000052
:1002A0008BE791E00E94AB06C0E0D0E01AC044E6C4
:1002B00064E682E00E94CF0262E070E083E090E0BA
:1002C0000E9427024CE36CE384E00E94CF029FEF80
:1002D00023EC89E0915020408040E1F700C000000D
:1002E0002196C330D1051CF38FE791E00E94AB0645
:1002F0004CE36CE384E00E94CF02DBCE649708F00D
:1003000049C00931110508F045C09AE1E916F10428
:1003100008F440C04CE36CE384E00E94CF0284E820
:1003200091E00E94AB062FEF83ED90E321508040D7
:100330009040E1F700C000008BE791E00E94AB061F
:10034000C0E0D0E01AC044E664E683E00E94CF0239
:1003500063E070E083E090E00E9427024CE36CE3EE
:1003600084E00E94CF022FEF83EC99E0215080407F
:100370009040E1F700C000002196C330D1051CF386
:100380008FE791E00E94AB064CE36CE384E00E94AF
:10039000CF028FCE81E991E00E94AB064CE36CE383
:1003A00080E00E94CF02E016F10608F126C02196F7
:1003B000C13FD10514F0CAEFD0E04C2F6CE380E0D0
:1003C0000E94CF02DF93CF9383EA91E09F938F93B4
:1003D0000E94950682E00E94BA038C0181E00E948F
:1003E000BA037C010F900F900F900F9002C0CCE3E6
:1003F000D0E0E016F106D8F25CCE0E151F0508F12C
:1004000058CE2196C13FD10514F0CAEFD0E04CE39D
:100410006C2F80E00E94CF02DF93CF938DEB91E0B1
:100420009F938F930E94950682E00E94BA038C01ED
:1004300081E00E94BA037C010F900F900F900F9003
:1004400002C0CCE3D0E00E151F05D8F232CECF9219
:10045000DF92EF92FF921F93CF93DF93EC01162F61
:100460001092D9011092D80180C089B190E0012E7C
:1004700002C0959587950A94E2F780FF63C089B121
:1004800090E0012E02C0959587950A94E2F780FDD1
:1004900010C058C08FE99FE00197F1F700C000003D
:1004A0008091E0019091E10101969093E1018093A8
:1004B000E00189B190E0012E02C0959587950A94DC
:1004C000E2F780FDE7CF6091E0017091E101072E36
:1004D000000C880B990B0E949C056B017C016091BC
:1004E000DE017091DF01072E000C880B990B0E9432
:1004F0009C059B01AC01C701B6010E948D0420E060
:1005000030E040EC50E40E9428069B01AC0160E022
:100510007CE782E199E40E94F9046093DA01709328
:10052000DB018093DC019093DD018091D8019091F3
:10053000D90101969093D9018093D8011092DF01DF
:100540001092DE018FE99FE00197F1F700C00000F3
:100550008091DE019091DF0101969093DF018093FD
:10056000DE011092E1011092E0018091D80190919A
:10057000D9018C179D070CF478CFDF91CF911F9193
:10058000FF90EF90DF90CF90089584B5816084BD97
:1005900084B5806A84BD85B5836085BD08951F9349
:1005A000CF93DF93C82FD62F142F0E94C502C230DD
:1005B00049F128F4CC2341F0C130A9F04FC0C33039
:1005C00081F1C430E9F14AC08BB180618BB98BB144
:1005D0008F778BB985B1816085B985B18D7F85B9FC
:1005E00017BDD8BD3BC08BB18F7E8BB98BB18068F6
:1005F0008BB985B18E7F85B985B1826085B917BD0C
:10060000D8BD2CC08BB18F7E8BB98BB180688BB974
:1006100085B1816085B985B18D7F85B917BDD8BD9C
:100620001DC08BB180618BB98BB18F778BB985B1D0
:100630008E7F85B985B1826085B917BDD8BD0EC0E2
:100640008BB18F7E8BB98BB18F778BB985B18E7F54
:1006500085B985B18D7F85B917BC18BCDF91CF9165
:100660001F91089510928000E1E8F0E08081886099
:1006700080838FE990E09093890080938800AFE6B3
:10068000B0E08C9182608C937894808181608083CB
:1006900008951F920F920FB60F9211242F938F93EC
:1006A0009F938091E2019091E30101969093E30181
:1006B0008093E2018091E2019091E301893E9D4F98
:1006C00020F01092E3011092E2019F918F912F91FF
:1006D0000F900FBE0F901F901895109281000895F3
:1006E000E1EBF0E080818A7F80830895CF93DF93F0
:1006F000EC01E0EBF0E080818260808389EF809301
:10070000B3000E947003E1EBF0E08081846080839D
:1007100020E030E007C0B99BFECF87B3826087BB83
:100720002F5F3F4F2C173D07B0F3DF91CF91089516
:10073000CF93DF93EC01E0EBF0E080818260808377
:100740008FE08093B3000E947003E1EBF0E08081C2
:100750008160808320E030E007C0B99BFECF87B383
:10076000826087BB2F5F3F4F2C173D07B0F3DF91AF
:10077000CF910895CF92DF92EF92FF920F931F9344
:10078000CF93DF93182F02E0080F0E94320385B148
:10079000C1E0D0E002C0CC0FDD1F0A95E2F7DC2FEC
:1007A000D0958D2385B982E090E00E94980385B1B1
:1007B000C82BC5B98AE090E00E94980385B1D82380
:1007C000D5B9C0E0D0E004C0C091E201D091E3010E
:1007D00086B1212F90E0012E02C0959587950A944D
:1007E000E2F780FFF1CF00E010E004C00091E201E9
:1007F0001091E30186B190E0022E02C09595879595
:100800000A94E2F780FDF2CF0E946D03B8016C1BE1
:100810007D0B1092E3011092E20180E090E00E94D3
:100820009A052BE734E14EEA5EE30E94280620E0B9
:1008300030E040E05FE30E9428060E946B056B01F8
:100840007C018CE390E00E947603C601DF91CF919A
:100850001F910F91FF90EF90DF90CF90089587B197
:100860008E7F87B987B18D7F87B987B18B7F87B935
:1008700084B1846084B984B1886084B984B18061B2
:1008800084B98AB18B7F8AB98AB1877F8AB98AB1E4
:1008900080618AB98AB180688AB984B1816084B97B
:1008A00084B1826084B98AB180648AB98AB1806275
:1008B0008AB90895CF93C82F8A3019F48DE00E9429
:1008C0005A048091C00085FFFCCFC093C600CF9131
:1008D00008958091C0008823E4F78091C6000895B0
:1008E0001092C50087E68093C400E0ECF0E08081C0
:1008F0008D7F808386E08093C20088E18093C10071
:100900000895E4EEF1E08EE091E09383828380E04D
:1009100091E09183808308955058BB27AA270E94B5
:10092000A4040C94EE050E94E00538F00E94E7054F
:1009300020F039F49F3F19F426F40C94DD050EF4F1
:10094000E095E7FB0C94D705E92F0E94FF0558F3CB
:10095000BA17620773078407950720F079F4A6F5A4
:100960000C9421060EF4E0950B2EBA2FA02D0B014E
:10097000B90190010C01CA01A0011124FF27591BE4
:1009800099F0593F50F4503E68F11A16F040A22FEA
:10099000232F342F4427585FF3CF4695379527955B
:1009A000A795F0405395C9F77EF41F16BA0B620B5A
:1009B000730B840BBAF09150A1F0FF0FBB1F661FA1
:1009C000771F881FC2F70EC0BA0F621F731F841FE4
:1009D00048F4879577956795B795F7959E3F08F00A
:1009E000B0CF9395880F08F09927EE0F97958795CC
:1009F00008950E940D050C94EE050E94E70558F03D
:100A00000E94E00540F029F45F3F29F00C94D705DF
:100A100051110C9422060C94DD050E94FF0568F329
:100A20009923B1F3552391F3951B550BBB27AA27A7
:100A300062177307840738F09F5F5F4F220F331FE1
:100A4000441FAA1FA9F335D00E2E3AF0E0E832D0A9
:100A500091505040E695001CCAF72BD0FE2F29D0AC
:100A6000660F771F881FBB1F261737074807AB077E
:100A7000B0E809F0BB0B802DBF01FF2793585F4FF3
:100A80003AF09E3F510578F00C94D7050C9422065D
:100A90005F3FE4F3983ED4F3869577956795B795D5
:100AA000F7959F5FC9F7880F911D9695879597F9E0
:100AB0000895E1E0660F771F881FBB1F6217730759
:100AC0008407BA0720F0621B730B840BBA0BEE1F6E
:100AD00088F7E09508950E94070688F09F5798F0E0
:100AE000B92F9927B751B0F0E1F0660F771F881F33
:100AF000991F1AF0BA95C9F714C0B13091F00E944D
:100B00002106B1E008950C942106672F782F8827DD
:100B1000B85F39F0B93FCCF3869577956795B39573
:100B2000D9F73EF490958095709561957F4F8F4FE2
:100B30009F4F0895E89409C097FB3EF490958095E7
:100B4000709561957F4F8F4F9F4F9923A9F0F92F93
:100B500096E9BB279395F695879577956795B79511
:100B6000F111F8CFFAF4BB0F11F460FF1BC06F5FF7
:100B70007F4F8F4F9F4F16C0882311F096E911C009
:100B8000772321F09EE8872F762F05C0662371F02A
:100B900096E8862F70E060E02AF09A95660F771F3E
:100BA000881FDAF7880F9695879597F9089597F932
:100BB0009F6780E870E060E008959FEF80EC089503
:100BC00000240A941616170618060906089500242C
:100BD0000A9412161306140605060895092E0394A6
:100BE000000C11F4882352F0BB0F40F4BF2B11F41A
:100BF00060FF04C06F5F7F4F8F4F9F4F089557FD79
:100C00009058440F551F59F05F3F71F04795880F7A
:100C100097FB991F61F09F3F79F087950895121611
:100C200013061406551FF2CF4695F1DF08C01616BD
:100C300017061806991FF1CF86957105610508946E
:100C40000895E894BB2766277727CB0197F9089585
:100C50000E943B060C94EE050E94E00538F00E94CD
:100C6000E70520F0952311F00C94D7050C94DD05D1
:100C700011240C9422060E94FF0570F3959FC1F386
:100C8000950F50E0551F629FF001729FBB27F00D3A
:100C9000B11D639FAA27F00DB11DAA1F649F66278F
:100CA000B00DA11D661F829F2227B00DA11D621FDE
:100CB000739FB00DA11D621F839FA00D611D221F98
:100CC000749F3327A00D611D231F849F600D211D7C
:100CD000822F762F6A2F11249F5750409AF0F1F0FF
:100CE00088234AF0EE0FFF1FBB1F661F771F881F68
:100CF00091505040A9F79E3F510580F00C94D705C4
:100D00000C9422065F3FE4F3983ED4F386957795E2
:100D10006795B795F795E7959F5FC1F7FE2B880F0D
:100D2000911D9695879597F90895A0E0B0E0EBE9BD
:100D3000F6E00C947C09AE014B5F5F4FFA016191C4
:100D40007191AF018091E6019091E7010E94DB066D
:100D5000E2E00C9498090F931F93CF93DF93E091F7
:100D6000E601F091E701238121FF1BC08C01D0E057
:100D7000C0E0F80181918F016091E6017091E70177
:100D8000DB011896ED91FC911997882331F00995B4
:100D9000892B79F3DFEFCFEFECCF8AE00995892B30
:100DA00019F08FEF9FEF02C08D2F9C2FDF91CF9115
:100DB0001F910F910895ABE0B0E0E1EEF6E00C94E6
:100DC0006C096C017B018A01FC0117821682838108
:100DD00081FFCCC1CE0101963C01F6019381F70160
:100DE00093FD859193FF81917F01882309F4BAC116
:100DF000853239F493FD859193FF81917F0185328E
:100E000029F4B60190E00E94D208E7CF912C212C62
:100E1000312CFFE1F315D8F08B3279F038F48032C1
:100E200079F08332A1F4232D20611DC08D3261F051
:100E3000803369F4232D216016C0832D8260382E03
:100E4000E32DE4603E2E2AC0F32DF8601DC037FC70
:100E50002DC020ED280F2A3040F08E32B9F436FC38
:100E600081C1232D2064322E19C036FE06C08AE0CF
:100E7000989E200D1124922E11C0EAE02E9E200D86
:100E80001124222EF32DF0623F2E08C08C3621F45F
:100E9000832D8068382E02C0883641F4F70193FD17
:100EA000859193FF81917F018111B3CF982F9F7D11
:100EB0009554933028F40C5F1F4F9FE399830DC026
:100EC000833631F0833771F0833509F059C021C082
:100ED000F801808189830E5F1F4F88248394912CB1
:100EE000530113C02801F2E04F0E511CF801A080FD
:100EF000B18036FE03C0692D70E002C06FEF7FEF56
:100F0000C5010E94C7084C018201F32DFF773F2ED7
:100F100016C0280122E0420E511CF801A080B180C9
:100F200036FE03C0692D70E002C06FEF7FEFC50190
:100F30000E94BC084C01F32DF0683F2E820133FC67
:100F40001BC0822D90E088169906B0F4B60180E2AD
:100F500090E00E94D2082A94F4CFF50137FC8591E5
:100F600037FE81915F01B60190E00E94D208211006
:100F70002A9421E0821A91088114910471F7E8C043
:100F8000843611F0893641F5F80137FE07C06081DB
:100F90007181828193810C5F1F4F08C060817181D4
:100FA000072E000C880B990B0E5F1F4FF32DFF7659
:100FB0003F2E97FF09C090958095709561957F4F62
:100FC0008F4F9F4FF0683F2E2AE030E0A3010E9430
:100FD0000E09882E861845C0853731F4232D2F7EC3
:100FE000B22E2AE030E025C0932D997FB92E8F369E
:100FF000C1F018F4883579F0B5C0803719F088371A
:1010000021F0B0C0E92FE061BE2EB4FE0DC0FB2D73
:10101000F460BF2E09C034FE0AC0292F2660B22E0C
:1010200006C028E030E005C020E130E002C020E149
:1010300032E0F801B7FE07C060817181828193813F
:101040000C5F1F4F06C06081718180E090E00E5FF1
:101050001F4FA3010E940E09882E8618FB2DFF77D3
:101060003F2E36FE0DC0232D2E7FA22E891458F45C
:1010700034FE0BC032FC09C0832D8E7EA82E05C025
:10108000B82CA32C03C0B82C01C0B92CA4FE0FC0EF
:10109000FE01E80DF11D8081803321F49A2D997EA7
:1010A000A92E09C0A2FE06C0B394B39404C08A2D31
:1010B000867809F0B394A3FC11C0A0FE06C0B21458
:1010C00088F4280C922C9B180EC0B21460F4B60160
:1010D00080E290E00E94D208B394F7CFB21418F4E3
:1010E0002B1802C0982C212CA4FE10C0B60180E35E
:1010F00090E00E94D208A2FE17C0A1FC03C088E7BE
:1011000090E002C088E590E0B6010CC08A2D867898
:1011100059F0A1FE02C08BE201C080E2A7FC8DE283
:10112000B60190E00E94D208891438F4B60180E339
:1011300090E00E94D2089A94F7CF8A94F301E80DC8
:10114000F11D8081B60190E00E94D2088110F5CF98
:10115000222009F442CEB60180E290E00E94D2083B
:101160002A94F6CFF6018681978102C08FEF9FEF18
:101170002B96E2E10C948809FC01059061507040C7
:101180000110D8F7809590958E0F9F1F0895FC0150
:101190006150704001900110D8F7809590958E0FA6
:1011A0009F1F08950F931F93CF93DF93FB0123811C
:1011B00021FD03C08FEF9FEF2CC022FF16C0468198
:1011C0005781248135814217530744F4A081B181AE
:1011D0009D012F5F3F4F318320838C932681378180
:1011E0002F5F3F4F3783268314C08B01EC01FB0137
:1011F0000084F185E02D0995892BE1F6D80116963A
:101200008D919C911797019617969C938E931697A4
:10121000CE01DF91CF911F910F910895FA01AA2776
:10122000283051F1203181F1E8946F936E7F6E5F29
:101230007F4F8F4F9F4FAF4FB1E03ED0B4E03CD0D7
:10124000670F781F891F9A1FA11D680F791F8A1FBA
:10125000911DA11D6A0F711D811D911DA11D20D021
:1012600009F468943F912AE0269F11243019305DDB
:101270003193DEF6CF010895462F4770405D4193CC
:10128000B3E00FD0C9F7F6CF462F4F70405D4A3319
:1012900018F0495D31FD4052419302D0A9F7EACFE1
:1012A000B4E0A6959795879577956795BA95C9F710
:1012B00000976105710508959B01AC010A2E069403
:1012C0005795479537952795BA95C9F7620F731FBC
:1012D000841F951FA01D08952F923F924F925F92F9
:1012E0006F927F928F929F92AF92BF92CF92DF9236
:1012F000EF92FF920F931F93CF93DF93CDB7DEB79B
:10130000CA1BDB0B0FB6F894DEBF0FBECDBF09942E
:101310002A88398848885F846E847D848C849B8485
:10132000AA84B984C884DF80EE80FD800C811B8193
:10133000AA81B981CE0FD11D0FB6F894DEBF0FBEC2
:0A134000CDBFED010895F894FFCF32
:10134A000000000100000000000069040000000025
:10135A000002000000005A040000000046726F6E8E
:10136A00743A2025640A004C6566743A2025640A9A
:10137A000052696768743A2025640A0A00416C6C55
:10138A002074687265652077616C6C732077726F60
:10139A006E670053544F50505050500046726F6E53
:1013AA00742077616C6C2061686561640053544FE6
:1013BA0050505050507269676874006C6F6C006CC2
:1013CA006F6C320053544F50505050506C656674D5
:1013DA000045766572797468696E67206973206F53
:1013EA006B2100496E6372656173696E67206C6573
:1013FA006674206D6F746F722025640A00496E63EB
:10140A0072656173696E67207269676874206D6FAF
:08141A00746F722025640A00C2
:00000001FF
