S00C0000546573742E7372656378
S11300000C9434000C9451000C9451000C94510045
S11300100C9451000C9451000C9451000C94510018
S11300200C9451000C9451000C9451000C946001F8
S11300300C9451000C9451000C9451000C945100F8
S11300400C9451000C9451000C9451000C945100E8
S11300500C9451000C9451000C9451000C945100D8
S11300600C9451000C94510011241FBECFEFD8E022
S1130070DEBFCDBF11E0A0E0B1E0E6E5F7E002C0ED
S113008005900D92A030B107D9F721E0A0E0B1E0CE
S113009001C01D92A230B207E1F70E9453000C94F4
S11300A0A9030C940000EF92FF920F931F93CF9338
S11300B0DF930E94540280E00E94D101EC0181E0B0
S11300C00E94D1017C0182E00E94D1018C01C931DE
S11300D0D10590F4499780F489E1E816F10440F0E1
S11300E00BC083E00E94E70080E00E94D101EC0194
S11300F0CA31D105B0F349C0C931D10558F4093129
S1130100110540F48AE1E816F10420F082E00E942F
S1130110E7003BC0C931D10558F40A31110540F05C
S113012089E1E816F10420F483E00E94E7002DC081
S1130130C931D10590F40A31110578F08AE1E81645
S1130140F10458F083E00E94E70084EB90E00E9401
S11301508D0180E00E94E70018C0CA31D10590F0FB
S11301600931110578F48AE1E816F10458F082E0C7
S11301700E94E70084EB90E00E948D0180E00E94E1
S1130180E70003C080E00E94E7006A9708F493CF79
S11301900A31110508F48FCF8AE1E816F10408F456
S11301A08ACF84E00E94E70080E090E0DF91CF9165
S11301B01F910F91FF90EF90089584B5816084BDE5
S11301C084B5806A84BD85B5836085BD0895CF9369
S11301D0C82F0E94DD00C23061F128F4CC2349F01D
S11301E0C130B9F054C0C330A1F1C43009F441C0E6
S11301F04EC08BB180618BB98BB18F778BB985B1D0
S1130200816085B985B1827085B984E687BD88BD72
S11302103EC08BB18F7E8BB98BB180688BB985B1B1
S11302208E7F85B985B1826085B984E687BD88BD36
S11302302EC08BB18F7E8BB98BB180688BB985B1A1
S1130240816085B985B18D7F85B984E687BD88BD18
S11302501EC08BB180618BB98BB18F778BB985B19F
S11302608E7F85B985B1826085B984E687BD88BDF6
S11302700EC08BB18F7E8BB98BB18F778BB985B163
S11302808E7F85B985B18D7F85B917BC18BCCF9198
S1130290089510928000E1E8F0E080818860808316
S11302A08FE990E09093890080938800AFE6B0E0F6
S11302B08C9182608C93789480818160808308958E
S11302C01F920F920FB60F9211242F938F939F9327
S11302D08091000190910101019690930101809316
S11302E000018091000190910101893E9D4F20F011
S11302F010920101109200019F918F912F910F9004
S11303000FBE0F901F901895109281000895E1EB95
S1130310F0E080818A7F80830895CF93DF93EC019E
S1130320E0EBF0E080818260808389EF8093B3000A
S11303300E948701E1EBF0E080818460808320E00B
S113034030E007C0B99BFECF87B3826087BB2F5FC5
S11303503F4F2C173D07B0F3DF91CF910895CF9312
S1130360DF93EC01E0EBF0E08081826080838FE03A
S11303708093B3000E948701E1EBF0E0808181600B
S1130380808320E030E007C0B99BFECF87B3826052
S113039087BB2F5F3F4F2C173D07B0F3DF91CF9101
S11303A00895CF92DF92EF92FF920F931F93CF9312
S11303B0DF93182F02E0080F0E94490185B1C1E0C4
S11303C0D0E002C0CC0FDD1F0A95E2F7DC2FD095F8
S11303D08D2385B982E090E00E94AF0185B1C82BDE
S11303E0C5B98AE090E00E94AF0185B1D823D5B9A0
S11303F0C0E0D0E004C0C0910001D091010186B1F9
S1130400212F90E0012E02C0959587950A94E2F77A
S113041080FFF1CF00E010E004C0009100011091D2
S1130420010186B190E0022E02C0959587950A9449
S1130430E2F780FDF2CF0E948401B8016C1B7D0BB2
S1130440109201011092000180E090E00E94AE023F
S11304502BE734E14EEA5EE30E94140320E030E02F
S113046040E05FE30E9414030E947F026B017C0161
S1130470EB018CE390E00E948D0181E9C81681E0D4
S1130480D80628F4229730F488E190E004C08AE189
S113049090E001C0C601DF91CF911F910F91FF90B1
S11304A0EF90DF90CF90089587B18E7F87B987B1A1
S11304B08D7F87B987B18B7F87B984B1846084B914
S11304C084B1886084B984B1806184B98AB18B7F36
S11304D08AB98AB1877F8AB98AB180618AB98AB1B7
S11304E080688AB984B1816084B984B1826084B936
S11304F08AB180628AB98AB180648AB908950E94F7
S1130500F30288F09F5798F0B92F9927B751B0F0AC
S1130510E1F0660F771F881F991F1AF0BA95C9F783
S113052014C0B13091F00E940D03B1E008950C9411
S11305300D03672F782F8827B85F39F0B93FCCF3C4
S1130540869577956795B395D9F73EF49095809500
S1130550709561957F4F8F4F9F4F0895E89409C020
S113056097FB3EF490958095709561957F4F8F4FE2
S11305709F4F9923A9F0F92F96E9BB279395F695F8
S1130580879577956795B795F111F8CFFAF4BB0F76
S113059011F460FF1BC06F5F7F4F8F4F9F4F16C0DA
S11305A0882311F096E911C0772321F09EE8872F64
S11305B0762F05C0662371F096E8862F70E060E020
S11305C02AF09A95660F771F881FDAF7880F969599
S11305D0879597F9089557FD9058440F551F59F082
S11305E05F3F71F04795880F97FB991F61F09F3F1C
S11305F079F087950895121613061406551FF2CF45
S11306004695F1DF08C0161617061806991FF1CF94
S113061086957105610508940895E894BB276627BB
S11306207727CB0197F908950E9427030C94980328
S11306300E948A0338F00E94910320F0952311F060
S11306400C9481030C94870311240C940E030E94D0
S1130650EB0270F3959FC1F3950F50E0551F629F15
S1130660F001729FBB27F00DB11D639FAA27F00D07
S1130670B11DAA1F649F6627B00DA11D661F829F2E
S11306802227B00DA11D621F739FB00DA11D621F13
S1130690839FA00D611D221F749F3327A00D611D30
S11306A0231F849F600D211D822F762F6A2F112412
S11306B09F5750409AF0F1F088234AF0EE0FFF1F45
S11306C0BB1F661F771F881F91505040A9F79E3F9C
S11306D0510580F00C9481030C940E035F3FE4F306
S11306E0983ED4F3869577956795B795F795E795F2
S11306F09F5FC1F7FE2B880F911D9695879597F9FB
S1130700089597F99F6780E870E060E008959FEF8F
S113071080EC089500240A94161617061806090694
S1130720089500240A941216130614060506089563
S1130730092E0394000C11F4882352F0BB0F40F4EB
S1130740BF2B11F460FF04C06F5F7F4F8F4F9F4F2B
S10907500895F894FFCFA8
S9030000FC
