:100000000C9434000C9493010C94A4010C945100B2
:100010000C9451000C9451000C9451000C9451001C
:100020000C9451000C9451000C9451000C94D50187
:100030000C9451000C9451000C9451000C945100FC
:100040000C9451000C9451000C9451000C945100EC
:100050000C9451000C9451000C9451000C945100DC
:100060000C9451000C94510011241FBECFEFD8E026
:10007000DEBFCDBF11E0A0E0B1E0E0EBFEE002C0EA
:1000800005900D92A83FB107D9F722E0A8EFB1E0A3
:1000900001C01D92A130B207E1F70E9453000C94F9
:1000A00056070C9400000E94BB020E9402030E94AB
:1000B000130380E00E94460282E00E94460281E033
:1000C0000E94460280E00E9446028C0182E00E946B
:1000D00046027C0181E00E944602EC011F930F93CF
:1000E0008CE191E09F938F930E944804DF93CF931C
:1000F0008AE291E09F938F930E944804FF92EF92CF
:1001000087E391E09F938F930E944804CE010A9762
:100110002DB73EB7245F3F4F0FB6F8943EBF0FBEDA
:100120002DBF0B9760F40931110548F085E491E08B
:100130000E945E0461E480E00E941D01C3CFC531CE
:10014000D105C8F009311105B0F084E591E00E94B5
:100150005E0461E482E00E941D013FEF83EC99E0C0
:10016000315080409040E1F700C0000061E480E041
:100170000E941D01A7CF2A97C8F409311105B0F0DC
:100180008AE791E00E945E0461E483E00E941D0121
:100190002FEF33EC89E0215030408040E1F700C080
:1001A000000061E480E00E941D018CCF093111053F
:1001B00008F088CF83EA91E00E945E0460E084E06A
:1001C0000E941D019FEF23ED30E39150204030400D
:1001D000E1F700C0000087E1E816F10498F087EB32
:1001E00091E00E945E0482E00E947D0104C061E40F
:1001F00083E00E941D018091F8018930C0F30E94C4
:10020000B50160CF82ED91E00E945E0482E00E9421
:100210007D0104C061E482E00E941D018091F8012B
:100220008331C0F34FCF84B5816084BD84B5806ACB
:1002300084BD85B5836085BD0895CF93DF93C82FB6
:10024000D62F0E941301C23049F128F4CC2341F08B
:10025000C130A9F04FC0C33081F1C430E9F14AC0C8
:100260008BB180618BB98BB18F778BB985B1816090
:1002700085B985B18D7F85B9D7BDD8BD3BC08BB160
:100280008F7E8BB98BB180688BB985B18E7F85B934
:1002900085B1826085B9D7BDD8BD2CC08BB18F7EAA
:1002A0008BB98BB180688BB985B1816085B985B117
:1002B0008D7F85B9D7BDD8BD1DC08BB180618BB98D
:1002C0008BB18F778BB985B18E7F85B985B182600F
:1002D00085B9D7BDD8BD0EC08BB18F7E8BB98BB120
:1002E0008F778BB985B18E7F85B985B18D7F85B9C3
:1002F00017BC18BCDF91CF910895823051F4E9E624
:10030000F0E08081826080838DB381608DBB7894C2
:100310000895E9E6F0E08081886080838DB3826093
:100320008DBB789408951F920F920FB60F921124EF
:100330008F938091F8018F5F8093F8018F910F90D8
:100340000FBE0F901F9018951F920F920FB60F922D
:1003500011248F938091F8018F5F8093F8018F9122
:100360000F900FBE0F901F9018951092F8018DB34B
:100370008E7F8DBB8DB38D7F8DBB089510928000D5
:10038000E1E8F0E08081886080838FE990E09093DD
:10039000890080938800AFE6B0E08C9182608C93F6
:1003A000789480818160808308951F920F920FB6A8
:1003B0000F9211242F938F939F938091F901909125
:1003C000FA0101969093FA018093F9018091F90165
:1003D0009091FA01893E9D4F20F01092FA011092FF
:1003E000F9019F918F912F910F900FBE0F901F9049
:1003F0001895109281000895E1EBF0E080818A7FEA
:1004000080830895CF93DF93EC01E0EBF0E08081EF
:100410008260808389EF8093B3000E94FC01E1EB4E
:10042000F0E080818460808320E030E007C0B99BE9
:10043000FECF87B3826087BB2F5F3F4F2C173D07EE
:10044000B0F3DF91CF910895CF93DF93EC01E0EB10
:10045000F0E08081826080838FE08093B3000E940F
:10046000FC01E1EBF0E080818160808320E030E0FE
:1004700007C0B99BFECF87B3826087BB2F5F3F4F1A
:100480002C173D07B0F3DF91CF910895CF92DF9203
:10049000EF92FF920F931F93CF93DF93182F02E0F9
:1004A000080F0E94BE0185B1C1E0D0E002C0CC0FB0
:1004B000DD1F0A95E2F7DC2FD0958D2385B982E008
:1004C00090E00E94240285B1C82BC5B98AE090E073
:1004D0000E94240285B1D823D5B9C0E0D0E004C081
:1004E000C091F901D091FA0186B1212F90E0012E3F
:1004F00002C0959587950A94E2F780FFF1CF00E05E
:1005000010E004C00091F9011091FA0186B190E069
:10051000022E02C0959587950A94E2F780FDF2CFEE
:100520000E94F901B8016C1B7D0B1092FA01109228
:10053000F90180E090E00E944D032BE734E14EEAA0
:100540005EE30E94B30320E030E040E05FE30E94FE
:10055000B3030E941E036B017C018CE390E00E94B8
:100560000202C601DF91CF911F910F91FF90EF9092
:10057000DF90CF90089587B18E7F87B987B18D7F47
:1005800087B987B18B7F87B987B1877F87B987B1F3
:100590008F7E87B984B1846084B984B1886084B95E
:1005A00084B1806184B98AB18B7F8AB98AB1877F2F
:1005B0008AB98AB180618AB98AB180688AB984B1FE
:1005C000816084B984B1826084B98AB180628AB959
:1005D0008AB180648AB90895CF93C82F8A3019F4FC
:1005E0008DE00E94EC028091C00085FFFCCFC0939B
:1005F000C600CF9108958091C0008823E4F78091D0
:10060000C60008951092C50087E68093C400E0EC10
:10061000F0E080818D7F808386E08093C20088E156
:100620008093C1000895EBEFF1E08EE091E09383B9
:10063000828380E091E09183808308950E949203F9
:1006400088F09F5798F0B92F9927B751B0F0E1F093
:10065000660F771F881F991F1AF0BA95C9F714C043
:10066000B13091F00E94AC03B1E008950C94AC035A
:10067000672F782F8827B85F39F0B93FCCF386957C
:1006800077956795B395D9F73EF4909580957095D9
:1006900061957F4F8F4F9F4F0895E89409C097FB56
:1006A0003EF490958095709561957F4F8F4F9F4F49
:1006B0009923A9F0F92F96E9BB279395F69587958D
:1006C00077956795B795F111F8CFFAF4BB0F11F450
:1006D00060FF1BC06F5F7F4F8F4F9F4F16C08823F7
:1006E00011F096E911C0772321F09EE8872F762F2D
:1006F00005C0662371F096E8862F70E060E02AF06E
:100700009A95660F771F881FDAF7880F9695879559
:1007100097F9089557FD9058440F551F59F05F3FC2
:1007200071F04795880F97FB991F61F09F3F79F013
:1007300087950895121613061406551FF2CF469595
:10074000F1DF08C0161617061806991FF1CF869517
:100750007105610508940895E894BB2766277727FB
:10076000CB0197F908950E94C6030C9437040E94A8
:10077000290438F00E94300420F0952311F00C94E5
:1007800020040C94260411240C94AD030E948A03C7
:1007900070F3959FC1F3950F50E0551F629FF001D4
:1007A000729FBB27F00DB11D639FAA27F00DB11DED
:1007B000AA1F649F6627B00DA11D661F829F222776
:1007C000B00DA11D621F739FB00DA11D621F839FFD
:1007D000A00D611D221F749F3327A00D611D231FD3
:1007E000849F600D211D822F762F6A2F11249F5721
:1007F00050409AF0F1F088234AF0EE0FFF1FBB1F24
:10080000661F771F881F91505040A9F79E3F5105E2
:1008100080F00C9420040C94AD035F3FE4F3983E09
:10082000D4F3869577956795B795F795E7959F5F8C
:10083000C1F7FE2B880F911D9695879597F908951E
:1008400097F99F6780E870E060E008959FEF80EC83
:10085000089500240A941616170618060906089526
:1008600000240A9412161306140605060895092E8C
:100870000394000C11F4882352F0BB0F40F4BF2BFB
:1008800011F460FF04C06F5F7F4F8F4F9F4F08953B
:10089000A0E0B0E0EEE4F4E00C942F07AE014B5F73
:1008A0005F4FFA0161917191AF018091FD019091CB
:1008B000FE010E948E04E2E00C944B070F931F93FD
:1008C000CF93DF93E091FD01F091FE01238121FFA1
:1008D0001BC08C01D0E0C0E0F80181918F016091D4
:1008E000FD017091FE01DB011896ED91FC911997C5
:1008F000882331F00995892B79F3DFEFCFEFECCF27
:100900008AE00995892B19F08FEF9FEF02C08D2F98
:100910009C2FDF91CF911F910F910895ABE0B0E034
:10092000E4E9F4E00C941F076C017B018A01FC01EF
:1009300017821682838181FFCCC1CE0101963C01D2
:10094000F6019381F70193FD859193FF81917F01DA
:10095000882309F4BAC1853239F493FD859193FF58
:1009600081917F01853229F4B60190E00E948506CD
:10097000E7CF912C212C312CFFE1F315D8F08B32ED
:1009800079F038F4803279F08332A1F4232D20619C
:100990001DC08D3261F0803369F4232D216016C0B3
:1009A000832D8260382EE32DE4603E2E2AC0F32D85
:1009B000F8601DC037FC2DC020ED280F2A3040F014
:1009C0008E32B9F436FC81C1232D2064322E19C039
:1009D00036FE06C08AE0989E200D1124922E11C08A
:1009E000EAE02E9E200D1124222EF32DF0623F2EE0
:1009F00008C08C3621F4832D8068382E02C08836DA
:100A000041F4F70193FD859193FF81917F0181115D
:100A1000B3CF982F9F7D9554933028F40C5F1F4FD0
:100A20009FE399830DC0833631F0833771F08335AE
:100A300009F059C021C0F801808189830E5F1F4FE2
:100A400088248394912C530113C02801F2E04F0EA7
:100A5000511CF801A080B18036FE03C0692D70E002
:100A600002C06FEF7FEFC5010E947A064C01820140
:100A7000F32DFF773F2E16C0280122E0420E511CB5
:100A8000F801A080B18036FE03C0692D70E002C07D
:100A90006FEF7FEFC5010E946F064C01F32DF068E8
:100AA0003F2E820133FC1BC0822D90E088169906F0
:100AB000B0F4B60180E290E00E9485062A94F4CF5B
:100AC000F50137FC859137FE81915F01B60190E019
:100AD0000E94850621102A9421E0821A910881142F
:100AE000910471F7E8C0843611F0893641F5F801B8
:100AF00037FE07C060817181828193810C5F1F4F37
:100B000008C060817181072E000C880B990B0E5F65
:100B10001F4FF32DFF763F2E97FF09C090958095CC
:100B2000709561957F4F8F4F9F4FF0683F2E2AE061
:100B300030E0A3010E94C106882E861845C0853783
:100B400031F4232D2F7EB22E2AE030E025C0932DE4
:100B5000997FB92E8F36C1F018F4883579F0B5C079
:100B6000803719F0883721F0B0C0E92FE061BE2E40
:100B7000B4FE0DC0FB2DF460BF2E09C034FE0AC0C8
:100B8000292F2660B22E06C028E030E005C020E103
:100B900030E002C020E132E0F801B7FE07C060811A
:100BA0007181828193810C5F1F4F06C060817181CA
:100BB00080E090E00E5F1F4FA3010E94C106882EC7
:100BC0008618FB2DFF773F2E36FE0DC0232D2E7F7E
:100BD000A22E891458F434FE0BC032FC09C0832DB8
:100BE0008E7EA82E05C0B82CA32C03C0B82C01C043
:100BF000B92CA4FE0FC0FE01E80DF11D80818033E9
:100C000021F49A2D997EA92E09C0A2FE06C0B394A4
:100C1000B39404C08A2D867809F0B394A3FC11C064
:100C2000A0FE06C0B21488F4280C922C9B180EC0AB
:100C3000B21460F4B60180E290E00E948506B3949D
:100C4000F7CFB21418F42B1802C0982C212CA4FE54
:100C500010C0B60180E390E00E948506A2FE17C096
:100C6000A1FC03C088E790E002C088E590E0B601EF
:100C70000CC08A2D867859F0A1FE02C08BE201C01B
:100C800080E2A7FC8DE2B60190E00E9485068914FF
:100C900038F4B60180E390E00E9485069A94F7CF7D
:100CA0008A94F301E80DF11D8081B60190E00E9465
:100CB00085068110F5CF222009F442CEB60180E2EC
:100CC00090E00E9485062A94F6CFF60186819781EE
:100CD00002C08FEF9FEF2B96E2E10C943B07FC01E3
:100CE0000590615070400110D8F7809590958E0F57
:100CF0009F1F0895FC016150704001900110D8F7CA
:100D0000809590958E0F9F1F08950F931F93CF93FB
:100D1000DF93FB01238121FD03C08FEF9FEF2CC0E8
:100D200022FF16C04681578124813581421753071F
:100D300044F4A081B1819D012F5F3F4F3183208317
:100D40008C93268137812F5F3F4F3783268314C0D2
:100D50008B01EC01FB010084F185E02D0995892BC5
:100D6000E1F6D80116968D919C91179701961796EA
:100D70009C938E931697CE01DF91CF911F910F9187
:100D80000895FA01AA27283051F1203181F1E89421
:100D90006F936E7F6E5F7F4F8F4F9F4FAF4FB1E06E
:100DA0003ED0B4E03CD0670F781F891F9A1FA11D69
:100DB000680F791F8A1F911DA11D6A0F711D811D6A
:100DC000911DA11D20D009F468943F912AE0269F2F
:100DD00011243019305D3193DEF6CF010895462F8E
:100DE0004770405D4193B3E00FD0C9F7F6CF462F6F
:100DF0004F70405D4A3318F0495D31FD40524193D8
:100E000002D0A9F7EACFB4E0A69597958795779594
:100E10006795BA95C9F700976105710508959B011B
:100E2000AC010A2E06945795479537952795BA95A4
:100E3000C9F7620F731F841F951FA01D08952F927D
:100E40003F924F925F926F927F928F929F92AF925A
:100E5000BF92CF92DF92EF92FF920F931F93CF93A7
:100E6000DF93CDB7DEB7CA1BDB0B0FB6F894DEBF3E
:100E70000FBECDBF09942A88398848885F846E8464
:100E80007D848C849B84AA84B984C884DF80EE80AE
:100E9000FD800C811B81AA81B981CE0FD11D0FB6B7
:100EA000F894DEBF0FBECDBFED010895F894FFCFDB
:100EB00000000001000000000000FB020000000034
:100EC000000200000000EC020000000046726F6E9D
:100ED000743A20256420636D0A004C6566743A20DC
:100EE000256420636D0A0052696768743A2025649E
:100EF00020636D0A000A476F696E6720666F72771C
:100F0000617264000A4D697373696E67206C65666F
:100F1000742077616C6C202D206E65656420746F81
:100F200020636C6F736520696E000A436C6F736594
:100F300020746F206C6566742077616C6C202D20A6
:100F40006E65656420746F207475726E20726967B7
:100F50006874000A46726F6E742077616C6C206250
:100F60006C6F636B6564000A456E6F75676820730C
:100F700070616365206F6E207468652072696768B0
:100F800074000A426C6F636B6564206576657279E4
:100F900077686572652C207475726E203138302048
:080FA00064656772656573006A
:00000001FF
