:100000000C9434000C9451000C9451000C94510049
:100010000C9451000C9451000C9451000C9451001C
:100020000C9451000C9451000C9451000C9451000C
:100030000C9451000C9451000C9415020C94510036
:100040000C9451000C9451000C9451000C945100EC
:100050000C9451000C9451000C9451000C945100DC
:100060000C9451000C94510011241FBECFEFD8E026
:10007000DEBFCDBF11E0A0E0B1E0E0E7FDE002C0EF
:1000800005900D92AC34B107D9F721E0ACE4B1E0B2
:1000900001C01D92AA35B207E1F70E9453000C94EB
:1000A000B6060C9400000E9492020E94A30281E016
:1000B00090E00E94EA009F938F938CE191E09F93E0
:1000C0008F930E94D8032FEF83ED90E3215080405F
:1000D0009040E1F700C0000082E090E00E94EA005A
:1000E0009F938F938CE291E09F938F930E94D8030C
:1000F0002FEF83ED90E3215080409040E1F700C066
:10010000000083E090E00E94EA009F938F938CE3CD
:1001100091E09F938F930E94D8032FEF83ED90E39C
:10012000215080409040E1F700C000008DB79EB79D
:100130000C960FB6F8949EBF0FBE8DBFB8CF85B595
:100140008C7F85BD0895CF93DF93EC0184B58260E9
:1001500084BD89EF87BD0E949F0085B5836085BD02
:1001600080E090E005C0A99BFECF22E025BB019670
:100170008C179D07C0F3DF91CF910895CF93DF9344
:10018000EC0184B5826084BD8FE087BD0E949F0032
:1001900085B5816085BD80E090E005C0A99BFECF5C
:1001A00022E025BB01968C179D07C0F3DF91CF910C
:1001B000089584B5826084BD8FE587BDEEE6F0E0EA
:1001C00080818260808378940E949F0085B58160E1
:1001D00085BD08950F931F93CF93DF93EC01019793
:1001E00009F05CC08AB18B7F8AB98AB188608AB90C
:1001F0008BB1877F8BB982E090E00E94BE008BB10B
:1002000088608BB98AE090E00E94BE008BB1877F46
:100210008BB90E94D90080914C0190914D01A09121
:100220004E01B0914F01892B8A2B8B2BA1F380912A
:100230004C0190914D01A0914E01B0914F01AC0144
:10024000BD01440F551F661F771F8A019B01080FD0
:10025000191F2A1F3B1FC901B801660F771F881F8E
:10026000991F0E94DD0226E933E44BE05DE30E9422
:10027000430320E030E040E05FE30E9443030E943C
:10028000AE028B0110924C0110924D0110924E0162
:1002900010924F018CE390E00E94A300C230D10580
:1002A00009F05CC08AB18F7E8AB98AB180628AB94E
:1002B0008BB18F7D8BB982E090E00E94BE008BB144
:1002C00080628BB98AE090E00E94BE008BB18F7D86
:1002D0008BB90E94D90080914C0190914D01A09161
:1002E0004E01B0914F01892B8A2B8B2BA1F380916A
:1002F0004C0190914D01A0914E01B0914F01AC0184
:10030000BD01440F551F661F771F8A019B01080F0F
:10031000191F2A1F3B1FC901B801660F771F881FCD
:10032000991F0E94DD0226E933E44BE05DE30E9461
:10033000430320E030E040E05FE30E9443030E947B
:10034000AE028B0110924C0110924D0110924E01A1
:1003500010924F018CE390E00E94A300239709F0D4
:100360005CC08AB18F7B8AB98AB180688AB98BB147
:100370008F778BB982E090E00E94BE008BB18068DD
:100380008BB98AE090E00E94BE008BB18F778BB969
:100390000E94D90080914C0190914D01A0914E0195
:1003A000B0914F01892B8A2B8B2BA1F380914C01AB
:1003B00090914D01A0914E01B0914F01AC01BD0152
:1003C000440F551F661F771F8A019B01080F191FD5
:1003D0002A1F3B1FC901B801660F771F881F991F8D
:1003E0000E94DD0226E933E44BE05DE30E94430313
:1003F00020E030E040E05FE30E9443030E94AE0251
:100400008B0110924C0110924D0110924E011092EE
:100410004F018CE390E00E94A300C801DF91CF91CF
:100420001F910F91089515BC08951F920F920FB65A
:100430000F9211242F933F934F935F936F937F936A
:100440008F939F93AF93BF93EF93FF9389B129B19C
:1004500099B1382F3470822F8071832B9074892B3F
:10046000A1F08091500190915101A0915201B09161
:1004700053010196A11DB11D80935001909351012C
:10048000A0935201B093530126C0809150019091E6
:100490005101A0915201B0915301892B8A2B8B2BD2
:1004A000D1F08091500190915101A0915201B091F1
:1004B000530180934C0190934D01A0934E01B09352
:1004C0004F0110925001109251011092520110925E
:1004D00053010E941302FF91EF91BF91AF919F9141
:1004E0008F917F916F915F914F913F912F910F90DD
:1004F0000FBE0F901F901895CF93C82F8A3019F414
:100500008DE00E947C028091C00085FFFCCFC093EB
:10051000C600CF9108958091C0008823E4F78091B0
:10052000C60008951092C50087E68093C400E0ECF1
:10053000F0E080818D7F808386E08093C20088E137
:100540008093C1000895E4E5F1E08EE091E09383AB
:10055000828380E091E09183808308950E9422034A
:1005600088F09F5798F0B92F9927B751B0F0E1F074
:10057000660F771F881F991F1AF0BA95C9F714C024
:10058000B13091F00E943C03B1E008950C943C031B
:10059000672F782F8827B85F39F0B93FCCF386955D
:1005A00077956795B395D9F73EF4909580957095BA
:1005B00061957F4F8F4F9F4F0895E89409C097FB37
:1005C0003EF490958095709561957F4F8F4F9F4F2A
:1005D0009923A9F0F92F96E9BB279395F69587956E
:1005E00077956795B795F111F8CFFAF4BB0F11F431
:1005F00060FF1BC06F5F7F4F8F4F9F4F16C08823D8
:1006000011F096E911C0772321F09EE8872F762F0D
:1006100005C0662371F096E8862F70E060E02AF04E
:100620009A95660F771F881FDAF7880F969587953A
:1006300097F9089557FD9058440F551F59F05F3FA3
:1006400071F04795880F97FB991F61F09F3F79F0F4
:1006500087950895121613061406551FF2CF469576
:10066000F1DF08C0161617061806991FF1CF8695F8
:100670007105610508940895E894BB2766277727DC
:10068000CB0197F908950E9456030C94C7030E946A
:10069000B90338F00E94C00320F0952311F00C94A8
:1006A000B0030C94B60311240C943D030E941A036A
:1006B00070F3959FC1F3950F50E0551F629FF001B5
:1006C000729FBB27F00DB11D639FAA27F00DB11DCE
:1006D000AA1F649F6627B00DA11D661F829F222757
:1006E000B00DA11D621F739FB00DA11D621F839FDE
:1006F000A00D611D221F749F3327A00D611D231FB4
:10070000849F600D211D822F762F6A2F11249F5701
:1007100050409AF0F1F088234AF0EE0FFF1FBB1F04
:10072000661F771F881F91505040A9F79E3F5105C3
:1007300080F00C94B0030C943D035F3FE4F3983ECB
:10074000D4F3869577956795B795F795E7959F5F6D
:10075000C1F7FE2B880F911D9695879597F90895FF
:1007600097F99F6780E870E060E008959FEF80EC64
:10077000089500240A941616170618060906089507
:1007800000240A9412161306140605060895092E6D
:100790000394000C11F4882352F0BB0F40F4BF2BDC
:1007A00011F460FF04C06F5F7F4F8F4F9F4F08951C
:1007B000A0E0B0E0EEEDF3E00C948F06AE014B5FED
:1007C0005F4FFA0161917191AF0180915601909153
:1007D00057010E94EE03E2E00C94AB06ABE0B0E000
:1007E000E4EFF3E00C947F066C017B018A01FC01CD
:1007F00017821682838181FFCCC1CE0101963C0114
:10080000F6019381F70193FD859193FF81917F011B
:10081000882309F4BAC1853239F493FD859193FF99
:1008200081917F01853229F4B60190E00E94E505AF
:10083000E7CF912C212C312CFFE1F315D8F08B322E
:1008400079F038F4803279F08332A1F4232D2061DD
:100850001DC08D3261F0803369F4232D216016C0F4
:10086000832D8260382EE32DE4603E2E2AC0F32DC6
:10087000F8601DC037FC2DC020ED280F2A3040F055
:100880008E32B9F436FC81C1232D2064322E19C07A
:1008900036FE06C08AE0989E200D1124922E11C0CB
:1008A000EAE02E9E200D1124222EF32DF0623F2E21
:1008B00008C08C3621F4832D8068382E02C088361B
:1008C00041F4F70193FD859193FF81917F0181119F
:1008D000B3CF982F9F7D9554933028F40C5F1F4F12
:1008E0009FE399830DC0833631F0833771F08335F0
:1008F00009F059C021C0F801808189830E5F1F4F24
:1009000088248394912C530113C02801F2E04F0EE8
:10091000511CF801A080B18036FE03C0692D70E043
:1009200002C06FEF7FEFC5010E94DA054C01820122
:10093000F32DFF773F2E16C0280122E0420E511CF6
:10094000F801A080B18036FE03C0692D70E002C0BE
:100950006FEF7FEFC5010E94CF054C01F32DF068CA
:100960003F2E820133FC1BC0822D90E08816990631
:10097000B0F4B60180E290E00E94E5052A94F4CF3D
:10098000F50137FC859137FE81915F01B60190E05A
:100990000E94E50521102A9421E0821A9108811411
:1009A000910471F7E8C0843611F0893641F5F801F9
:1009B00037FE07C060817181828193810C5F1F4F78
:1009C00008C060817181072E000C880B990B0E5FA7
:1009D0001F4FF32DFF763F2E97FF09C0909580950E
:1009E000709561957F4F8F4F9F4FF0683F2E2AE0A3
:1009F00030E0A3010E942106882E861845C0853765
:100A000031F4232D2F7EB22E2AE030E025C0932D25
:100A1000997FB92E8F36C1F018F4883579F0B5C0BA
:100A2000803719F0883721F0B0C0E92FE061BE2E81
:100A3000B4FE0DC0FB2DF460BF2E09C034FE0AC009
:100A4000292F2660B22E06C028E030E005C020E144
:100A500030E002C020E132E0F801B7FE07C060815B
:100A60007181828193810C5F1F4F06C0608171810B
:100A700080E090E00E5F1F4FA3010E942106882EA8
:100A80008618FB2DFF773F2E36FE0DC0232D2E7FBF
:100A9000A22E891458F434FE0BC032FC09C0832DF9
:100AA0008E7EA82E05C0B82CA32C03C0B82C01C084
:100AB000B92CA4FE0FC0FE01E80DF11D808180332A
:100AC00021F49A2D997EA92E09C0A2FE06C0B394E6
:100AD000B39404C08A2D867809F0B394A3FC11C0A6
:100AE000A0FE06C0B21488F4280C922C9B180EC0ED
:100AF000B21460F4B60180E290E00E94E505B39480
:100B0000F7CFB21418F42B1802C0982C212CA4FE95
:100B100010C0B60180E390E00E94E505A2FE17C078
:100B2000A1FC03C088E790E002C088E590E0B60130
:100B30000CC08A2D867859F0A1FE02C08BE201C05C
:100B400080E2A7FC8DE2B60190E00E94E5058914E1
:100B500038F4B60180E390E00E94E5059A94F7CF5F
:100B60008A94F301E80DF11D8081B60190E00E94A6
:100B7000E5058110F5CF222009F442CEB60180E2CE
:100B800090E00E94E5052A94F6CFF60186819781D0
:100B900002C08FEF9FEF2B96E2E10C949B06FC01C5
:100BA0000590615070400110D8F7809590958E0F98
:100BB0009F1F0895FC016150704001900110D8F70B
:100BC000809590958E0F9F1F08950F931F93CF933D
:100BD000DF93FB01238121FD03C08FEF9FEF2CC02A
:100BE00022FF16C046815781248135814217530761
:100BF00044F4A081B1819D012F5F3F4F3183208359
:100C00008C93268137812F5F3F4F3783268314C013
:100C10008B01EC01FB010084F185E02D0995892B06
:100C2000E1F6D80116968D919C911797019617962B
:100C30009C938E931697CE01DF91CF911F910F91C8
:100C40000895FA01AA27283051F1203181F1E89462
:100C50006F936E7F6E5F7F4F8F4F9F4FAF4FB1E0AF
:100C60003ED0B4E03CD0670F781F891F9A1FA11DAA
:100C7000680F791F8A1F911DA11D6A0F711D811DAB
:100C8000911DA11D20D009F468943F912AE0269F70
:100C900011243019305D3193DEF6CF010895462FCF
:100CA0004770405D4193B3E00FD0C9F7F6CF462FB0
:100CB0004F70405D4A3318F0495D31FD4052419319
:100CC00002D0A9F7EACFB4E0A695979587957795D6
:100CD0006795BA95C9F700976105710508959B015D
:100CE000AC010A2E06945795479537952795BA95E6
:100CF000C9F7620F731F841F951FA01D08952F92BF
:100D00003F924F925F926F927F928F929F92AF929B
:100D1000BF92CF92DF92EF92FF920F931F93CF93E8
:100D2000DF93CDB7DEB7CA1BDB0B0FB6F894DEBF7F
:100D30000FBECDBF09942A88398848885F846E84A5
:100D40007D848C849B84AA84B984C884DF80EE80EF
:100D5000FD800C811B81AA81B981CE0FD11D0FB6F8
:100D6000F894DEBF0FBECDBFED010895F894FFCF1C
:100D7000000000010000000000008B0200000000E5
:100D80000002000000007C020000000053656E734A
:100D90006F72313A20256420636D0A0053656E73CB
:100DA0006F72323A20256420636D0A0053656E73BA
:0C0DB0006F72333A20256420636D0A0046
:00000001FF
