S02700004C6566742077616C6C20666F6C6C6F77657220616C676F726974686D2076342E7372656367
S11300000C9434000C9451000C9451000C94510045
S11300100C9451000C9451000C9451000C94510018
S11300200C9451000C9451000C9451000C946E01EA
S11300300C9451000C9451000C9451000C945100F8
S11300400C9451000C9451000C9451000C945100E8
S11300500C9451000C9451000C9451000C945100D8
S11300600C9451000C94510011241FBECFEFD8E022
S1130070DEBFCDBF11E0A0E0B1E0E2EDF7E002C0E9
S113008005900D92AC31B107D9F721E0ACE1B1E0B4
S113009001C01D92A432B207E1F70E9453000C94F0
S11300A0E7030C9400000E94A1020E94B2020E9485
S11300B07A0280E00E94DC01EC0181E00E94DC0114
S11300C08C0182E00E94DC01C431D10508F0A7C094
S11300D08431910508F050C00431110520F584E005
S11300E00E941D0184EF91E00E949801659708F732
S11300F083E00E941D0180E293E00E94980184E065
S11301000E941D0184E690E00E94980180E00E9414
S1130110DC01EC0181E00E94DC0182E00E94DC0150
S1130120659730F3C6CF0531110508F478C084E033
S11301300E941D0184EF91E00E949801659708F0E8
S1130140B8CF82E00E941D0180E293E00E949801F2
S113015084E00E941D0184E690E00E94980180E002
S11301600E94DC01EC0181E00E94DC0182E00E943B
S1130170DC01659730F39DCF459708F450C00431F6
S1130180110528F584E00E941D0184EF91E00E948E
S11301909801659708F08DCF83E00E941D0180E2ED
S11301A093E00E94980184E00E941D0184E690E09F
S11301B00E94980180E00E94DC01EC0181E00E9431
S11301C0DC0182E00E94DC01659730F372CF0531D7
S11301D0110528F184E00E941D0184EF91E00E9442
S11301E09801659708F065CF83E00E941D0180E2C5
S11301F093E00E94980184E00E941D0184E690E04F
S11302000E94980180E00E94DC01EC0181E00E94E0
S1130210DC0182E00E94DC01659730F34ACF80E084
S11302200E941D0146CF84B5816084BD84B5806A77
S113023084BD85B5836085BD0895CF93C82F0E9482
S11302401301C230D9F028F4CC2341F0C13071F04D
S11302502CC0C330D9F0C43009F127C05C9A5F9830
S1130260289A299884E687BD88BD1FC05C985F9A48
S11302702898299A84E687BD88BD17C05C985F9A40
S1130280289A299884E687BD88BD0FC05C9A5F9838
S11302902898299A84E687BD88BD07C05C985F9832
S11302A02898299884E687BD88BDCF910895109237
S11302B08000E1E8F0E08081886080838FE990E04D
S11302C09093890080938800AFE6B0E08C918260BF
S11302D08C93789480818160808308951F920F921B
S11302E00FB60F9211242F938F939F9380911C012B
S11302F090911D01019690931D0180931C018091A2
S11303001C0190911D01893E9D4F20F010921D010A
S113031010921C019F918F912F910F900FBE0F90FF
S11303201F901895E1EBF0E080818A7F8083089527
S1130330CF93DF93EC01E0EBF0E080818260808377
S113034089EF8093B3000E949201E1EBF0E0808199
S113035084608083209759F0CE0120E030E0B99B7F
S1130360FECFB99A2F5F3F4F28173907C1F7DF91A6
S1130370CF910895CF93DF93EC01E0EBF0E080811F
S1130380826080838FE08093B3000E949201E1EB4E
S1130390F0E0808181608083209759F0CE0120E0D5
S11303A030E0B99BFECFB99A2F5F3F4F281739072A
S11303B0C1F7DF91CF910895CF92DF92EF92FF9230
S11303C01F93CF93DF93182F0E94570185B192E0BA
S11303D0910FC1E0D0E002C0CC0FDD1F9A95E2F787
S11303E0DC2FD0958D2385B982E090E00E94BA017C
S11303F010921D0110921C0185B1C82BC5B98AE069
S113040090E00E94BA0185B1D823D5B986B190E0B5
S1130410012E02C0959587950A94E2F780FD13C0DA
S113042021E030E0012E02C0220F331F0A94E2F7CC
S113043040911C0150911D0186B190E082239323C9
S1130440892BB1F302C040E050E086B190E0012E68
S113045002C0959587950A94E2F780FF12C021E0C7
S113046030E002C0220F331F1A95E2F760911C019D
S113047070911D0186B190E082239323892BB1F7FB
S113048002C060E070E01092810010921D01109291
S11304901C01641B750B80E090E00E94EC022BE7CA
S11304A034E14EEA5EE30E94520320E030E040E093
S11304B05FE30E9452030E94BD026B017C01EB01C9
S11304C08CE390E00E94980181E9C81681E0D80687
S11304D020F4229728F0C60105C088EC90E002C001
S11304E083E190E0DF91CF911F91FF90EF90DF9037
S11304F0CF900895389839983A98229A239A249A52
S113050052985398549A579A209A219A559A569ADF
S11305100895CF93C82F8A3019F48DE00E94890280
S1130520E0ECF0E0808185FFFDCFC093C600CF9161
S11305300895E0ECF0E080818823ECF78091C60018
S113054008951092C50087E68093C400E0ECF0E0C3
S113055080818D7F808386E08093C20088E18093D0
S1130560C1000895EEE1F1E08EE091E0938382838F
S113057080E091E09183808308950E94310388F0A4
S11305809F5798F0B92F9927B751B0F0E1F0660F53
S1130590771F881F991F1AF0BA95C9F714C0B13094
S11305A091F00E944B03B1E008950C944B03672F24
S11305B0782F8827B85F39F0B93FCCF386957795C3
S11305C06795B395D9F73EF49095809570956195AC
S11305D07F4F8F4F9F4F0895E89409C097FB3EF4D7
S11305E090958095709561957F4F8F4F9F4F99237C
S11305F0A9F0F92F96E9BB279395F69587957795FA
S11306006795B795F111F8CFFAF4BB0F11F460FFB9
S11306101BC06F5F7F4F8F4F9F4F16C0882311F011
S113062096E911C0772321F09EE8872F762F05C025
S1130630662371F096E8862F70E060E02AF09A95C0
S1130640660F771F881FDAF7880F9695879597F9B5
S1130650089557FD9058440F551F59F05F3F71F0AE
S11306604795880F97FB991F61F09F3F79F0879515
S11306700895121613061406551FF2CF4695F1DF9E
S113068008C0161617061806991FF1CF869571052E
S1130690610508940895E894BB2766277727CB0162
S11306A097F908950E9465030C94D6030E94C80329
S11306B038F00E94CF0320F0952311F00C94BF036F
S11306C00C94C50311240C944C030E94290370F369
S11306D0959FC1F3950F50E0551F629FF001729FE3
S11306E0BB27F00DB11D639FAA27F00DB11DAA1FF2
S11306F0649F6627B00DA11D661F829F2227B00D3F
S1130700A11D621F739FB00DA11D621F839FA00DC9
S1130710611D221F749F3327A00D611D231F849F19
S1130720600D211D822F762F6A2F11249F57504070
S11307309AF0F1F088234AF0EE0FFF1FBB1F661FEB
S1130740771F881F91505040A9F79E3F510580F0B4
S11307500C94BF030C944C035F3FE4F3983ED4F332
S1130760869577956795B795F795E7959F5FC1F758
S1130770FE2B880F911D9695879597F9089597F903
S11307809F6780E870E060E008959FEF80EC089533
S113079000240A941616170618060906089500245C
S11307A00A9412161306140605060895092E0394D6
S11307B0000C11F4882352F0BB0F40F4BF2B11F44A
S11307C060FF04C06F5F7F4F8F4F9F4F0895F89471
S10507D0FFCF55
S11307D20000000100000000000099020000000077
S10F07E20002000000008902000000007A
S9030000FC
