:100000000C9434000C9451000C9451000C94510049
:100010000C9451000C9451000C9451000C9451001C
:100020000C9451000C9451000C9451000C94B402A7
:100030000C9451000C9451000C9451000C945100FC
:100040000C9451000C9451000C9451000C945100EC
:100050000C9451000C9451000C9451000C945100DC
:100060000C9451000C94510011241FBECFEFD8E026
:10007000DEBFCDBF11E0A0E0B1E0E0E2F2E102C0FE
:1000800005900D92A43AB107D9F721E0A4EAB1E0B6
:1000900001C01D92A63BB207E1F70E9453000C94E9
:1000A0000E090C9400000E949A030E94DB030E9438
:1000B000EC0380E00E942503EC0182E00E9425030E
:1000C0008C0181E00E9425037C01DF93CF938CE1BA
:1000D00091E09F938F930E940006FF92EF9287E238
:1000E00091E09F938F930E9400061F930F9381E3EB
:1000F00091E09F938F930E9400068DB79EB70C9658
:100100000FB6F8949EBF0FBE8DBFCE31D10508F05B
:100110004EC00431110508F04AC094E1E916F1041B
:1001200008F045C08DE391E00E941606E016F10646
:10013000F8F464E684E00E943D0283E591E00E94C9
:1001400016062FEF83ED90E3215080409040E1F7B9
:1001500000C0000064E683E00E943D022FEF83EDC3
:1001600090E3215080409040E1F700C00000A1CF13
:1001700064E684E00E943D0283E591E00E94160659
:100180002FEF83ED90E3215080409040E1F700C0D5
:10019000000064E682E00E943D022FEF83ED90E3D1
:1001A000215080409040E1F700C0000082CFCE3166
:1001B000D10508F04EC00531110508F44AC025E10B
:1001C000E216F10408F445C08CE591E00E941606A1
:1001D000E016F106F8F464E684E00E943D0283E54F
:1001E00091E00E9416068FEF93ED20E3815090403E
:1001F0002040E1F700C0000064E683E00E943D0279
:100200008FEF9AED2AE1815090402040E1F700C045
:1002100000004FCF64E684E00E943D0283E591E058
:100220000E9416068FEF93ED20E38150904020400E
:10023000E1F700C0000064E682E00E943D028FEF1B
:100240009AED2AE1815090402040E1F700C0000083
:1002500030CFC233D10578F50531110560F184E165
:10026000E816F10440F564E684E00E943D028DE664
:1002700091E00E9416069FEF23ED80E3915020400D
:100280008040E1F700C0000062E382E00E943D028E
:100290008BE791E00E94160662E070E085E090E056
:1002A0000E9495018FE791E00E94160664E684E0C3
:1002B0000E943D02FECE6E9778F50431110560F57F
:1002C00095E1E916F10440F164E684E00E943D0204
:1002D00084E891E00E9416062FEF83ED90E3215011
:1002E00080409040E1F700C0000062E383E00E949C
:1002F0003D028BE791E00E94160663E070E085E026
:1003000090E00E9495018FE791E00E94160664E656
:1003100084E00E943D02CDCE81E991E00E94160664
:1003200064E680E00E943D02C4CECF92DF92EF925D
:10033000FF921F93CF93DF93EC01162F1092A5012C
:100340001092A40180C089B190E0012E02C0959561
:1003500087950A94E2F780FF63C089B190E0012E8F
:1003600002C0959587950A94E2F780FD10C058C0A9
:100370008FE99FE00197F1F700C000008091AC0188
:100380009091AD0101969093AD018093AC0189B13C
:1003900090E0012E02C0959587950A94E2F780FDC2
:1003A000E7CF6091AC017091AD01072E000C880B76
:1003B000990B0E9407056B017C016091AA01709165
:1003C000AB01072E000C880B990B0E9407059B01BF
:1003D000AC01C701B6010E94F80320E030E040EC18
:1003E00050E40E9493059B01AC0160E07CE782E150
:1003F00099E40E9464046093A6017093A70180931E
:10040000A8019093A9018091A4019091A501019662
:100410009093A5018093A4011092AB011092AA01C0
:100420008FE99FE00197F1F700C000008091AA01D9
:100430009091AB0101969093AB018093AA01109229
:10044000AD011092AC018091A4019091A5018C178F
:100450009D070CF478CFDF91CF911F91FF90EF9023
:10046000DF90CF90089584B5816084BD84B5806AA3
:1004700084BD85B5836085BD0895CF93DF93C82F74
:10048000D62F0E943302C23049F128F4CC2341F028
:10049000C130A9F04FC0C33081F1C430E9F14AC086
:1004A0008BB180618BB98BB18F778BB985B181604E
:1004B00085B985B18D7F85B9D7BDD8BD3BC08BB11E
:1004C0008F7E8BB98BB180688BB985B18E7F85B9F2
:1004D00085B1826085B9D7BDD8BD2CC08BB18F7E68
:1004E0008BB98BB180688BB985B1816085B985B1D5
:1004F0008D7F85B9D7BDD8BD1DC08BB180618BB94B
:100500008BB18F778BB985B18E7F85B985B18260CC
:1005100085B9D7BDD8BD0EC08BB18F7E8BB98BB1DD
:100520008F778BB985B18E7F85B985B18D7F85B980
:1005300017BC18BCDF91CF91089510928000E1E8BC
:10054000F0E08081886080838FE990E0909389005B
:1005500080938800AFE6B0E08C9182608C937894B1
:1005600080818160808308951F920F920FB60F9251
:1005700011242F938F939F938091AE019091AF019F
:1005800001969093AF018093AE018091AE0190915E
:10059000AF01893E9D4F20F01092AF011092AE0145
:1005A0009F918F912F910F900FBE0F901F901895D4
:1005B000109281000895E1EBF0E080818A7F8083D2
:1005C0000895CF93DF93EC01E0EBF0E0808182604F
:1005D000808389EF8093B3000E94DB02E1EBF0E0BF
:1005E00080818460808320E030E007C0B99BFECF2B
:1005F00087B3826087BB2F5F3F4F2C173D07B0F357
:10060000DF91CF910895CF93DF93EC01E0EBF0E021
:100610008081826080838FE08093B3000E94DB0240
:10062000E1EBF0E080818160808320E030E007C072
:10063000B99BFECF87B3826087BB2F5F3F4F2C17DC
:100640003D07B0F3DF91CF910895CF92DF92EF9203
:10065000FF920F931F93CF93DF93182F02E0080FA1
:100660000E949D0285B1C1E0D0E002C0CC0FDD1F29
:100670000A95E2F7DC2FD0958D2385B982E090E0D2
:100680000E94030385B1C82BC5B98AE090E00E949F
:10069000030385B1D823D5B9C0E0D0E004C0C09130
:1006A000AE01D091AF0186B1212F90E0012E02C0A2
:1006B000959587950A94E2F780FFF1CF00E010E06E
:1006C00004C00091AE011091AF0186B190E0022EFE
:1006D00002C0959587950A94E2F780FDF2CF0E94BB
:1006E000D802B8016C1B7D0B1092AF011092AE01C5
:1006F00080E090E00E9405052BE734E14EEA5EE3DE
:100700000E94930520E030E040E05FE30E94930503
:100710000E94D6046B017C018CE390E00E94E10210
:10072000C601DF91CF911F910F91FF90EF90DF9065
:10073000CF90089587B18E7F87B987B18D7F87B9B4
:1007400087B18B7F87B984B1846084B984B18860B4
:1007500084B984B1806184B98AB18B7F8AB98AB146
:10076000877F8AB98AB180618AB98AB180688AB97B
:1007700084B1816084B984B1826084B98AB18062B5
:100780008AB98AB180648AB90895CF93C82F8A3014
:1007900019F48DE00E94C5038091C00085FFFCCF55
:1007A000C093C600CF9108958091C0008823E4F7DC
:1007B0008091C60008951092C50087E68093C4001A
:1007C000E0ECF0E080818D7F808386E08093C20042
:1007D00088E18093C1000895E0EBF1E08EE091E0C4
:1007E0009383828380E091E09183808308955058C1
:1007F000BB27AA270E940F040C9459050E944B05A1
:1008000038F00E94520520F039F49F3F19F426F485
:100810000C9448050EF4E095E7FB0C944205E92F93
:100820000E946A0558F3BA17620773078407950791
:1008300020F079F4A6F50C948C050EF4E0950B2EBF
:10084000BA2FA02D0B01B90190010C01CA01A00122
:100850001124FF27591B99F0593F50F4503E68F17D
:100860001A16F040A22F232F342F4427585FF3CFBE
:10087000469537952795A795F0405395C9F77EF48F
:100880001F16BA0B620B730B840BBAF09150A1F0D8
:10089000FF0FBB1F661F771F881FC2F70EC0BA0F5E
:1008A000621F731F841F48F4879577956795B795E6
:1008B000F7959E3F08F0B0CF9395880F08F09927E1
:1008C000EE0F9795879508950E9478040C9459052A
:1008D0000E94520558F00E944B0540F029F45F3FFA
:1008E00029F00C94420551110C948D050C94480587
:1008F0000E946A0568F39923B1F3552391F3951B80
:10090000550BBB27AA2762177307840738F09F5F30
:100910005F4F220F331F441FAA1FA9F335D00E2E9D
:100920003AF0E0E832D091505040E695001CCAF70A
:100930002BD0FE2F29D0660F771F881FBB1F2617CD
:1009400037074807AB07B0E809F0BB0B802DBF01A4
:10095000FF2793585F4F3AF09E3F510578F00C9473
:1009600042050C948D055F3FE4F3983ED4F38695E1
:1009700077956795B795F7959F5FC9F7880F911D94
:100980009695879597F90895E1E0660F771F881F80
:10099000BB1F621773078407BA0720F0621B730B33
:1009A000840BBA0BEE1F88F7E09508950E9472053C
:1009B00088F09F5798F0B92F9927B751B0F0E1F020
:1009C000660F771F881F991F1AF0BA95C9F714C0D0
:1009D000B13091F00E948C05B1E008950C948C0523
:1009E000672F782F8827B85F39F0B93FCCF3869509
:1009F00077956795B395D9F73EF490958095709566
:100A000061957F4F8F4F9F4F0895E89409C097FBE2
:100A10003EF490958095709561957F4F8F4F9F4FD5
:100A20009923A9F0F92F96E9BB279395F695879519
:100A300077956795B795F111F8CFFAF4BB0F11F4DC
:100A400060FF1BC06F5F7F4F8F4F9F4F16C0882383
:100A500011F096E911C0772321F09EE8872F762FB9
:100A600005C0662371F096E8862F70E060E02AF0FA
:100A70009A95660F771F881FDAF7880F96958795E6
:100A800097F9089597F99F6780E870E060E008950E
:100A90009FEF80EC089500240A9416161706180696
:100AA0000906089500240A94121613061406050672
:100AB0000895092E0394000C11F4882352F0BB0F03
:100AC00040F4BF2B11F460FF04C06F5F7F4F8F4F66
:100AD0009F4F089557FD9058440F551F59F05F3FA1
:100AE00071F04795880F97FB991F61F09F3F79F050
:100AF00087950895121613061406551FF2CF4695D2
:100B0000F1DF08C0161617061806991FF1CF869553
:100B10007105610508940895E894BB276627772737
:100B2000CB0197F908950E94A6050C9459050E94DF
:100B30004B0538F00E94520520F0952311F00C94DB
:100B400042050C94480511240C948D050E946A05F9
:100B500070F3959FC1F3950F50E0551F629FF00110
:100B6000729FBB27F00DB11D639FAA27F00DB11D29
:100B7000AA1F649F6627B00DA11D661F829F2227B2
:100B8000B00DA11D621F739FB00DA11D621F839F39
:100B9000A00D611D221F749F3327A00D611D231F0F
:100BA000849F600D211D822F762F6A2F11249F575D
:100BB00050409AF0F1F088234AF0EE0FFF1FBB1F60
:100BC000661F771F881F91505040A9F79E3F51051F
:100BD00080F00C9442050C948D055F3FE4F3983E41
:100BE000D4F3869577956795B795F795E7959F5FC9
:100BF000C1F7FE2B880F911D9695879597F908955B
:100C0000A0E0B0E0E6E0F6E00C94E708AE014B5F50
:100C10005F4FFA0161917191AF018091B2019091A2
:100C2000B3010E944606E2E00C9403090F931F9360
:100C3000CF93DF93E091B201F091B301238121FFC3
:100C40001BC08C01D0E0C0E0F80181918F01609160
:100C5000B2017091B301DB011896ED91FC911997E7
:100C6000882331F00995892B79F3DFEFCFEFECCFB3
:100C70008AE00995892B19F08FEF9FEF02C08D2F25
:100C80009C2FDF91CF911F910F910895ABE0B0E0C1
:100C9000ECE4F6E00C94D7086C017B018A01FC01BE
:100CA00017821682838181FFCCC1CE0101963C015F
:100CB000F6019381F70193FD859193FF81917F0167
:100CC000882309F4BAC1853239F493FD859193FFE5
:100CD00081917F01853229F4B60190E00E943D08A0
:100CE000E7CF912C212C312CFFE1F315D8F08B327A
:100CF00079F038F4803279F08332A1F4232D206129
:100D00001DC08D3261F0803369F4232D216016C03F
:100D1000832D8260382EE32DE4603E2E2AC0F32D11
:100D2000F8601DC037FC2DC020ED280F2A3040F0A0
:100D30008E32B9F436FC81C1232D2064322E19C0C5
:100D400036FE06C08AE0989E200D1124922E11C016
:100D5000EAE02E9E200D1124222EF32DF0623F2E6C
:100D600008C08C3621F4832D8068382E02C0883666
:100D700041F4F70193FD859193FF81917F018111EA
:100D8000B3CF982F9F7D9554933028F40C5F1F4F5D
:100D90009FE399830DC0833631F0833771F083353B
:100DA00009F059C021C0F801808189830E5F1F4F6F
:100DB00088248394912C530113C02801F2E04F0E34
:100DC000511CF801A080B18036FE03C0692D70E08F
:100DD00002C06FEF7FEFC5010E9432084C01820113
:100DE000F32DFF773F2E16C0280122E0420E511C42
:100DF000F801A080B18036FE03C0692D70E002C00A
:100E00006FEF7FEFC5010E9427084C01F32DF068BA
:100E10003F2E820133FC1BC0822D90E0881699067C
:100E2000B0F4B60180E290E00E943D082A94F4CF2D
:100E3000F50137FC859137FE81915F01B60190E0A5
:100E40000E943D0821102A9421E0821A9108811401
:100E5000910471F7E8C0843611F0893641F5F80144
:100E600037FE07C060817181828193810C5F1F4FC3
:100E700008C060817181072E000C880B990B0E5FF2
:100E80001F4FF32DFF763F2E97FF09C09095809559
:100E9000709561957F4F8F4F9F4FF0683F2E2AE0EE
:100EA00030E0A3010E947908882E861845C0853756
:100EB00031F4232D2F7EB22E2AE030E025C0932D71
:100EC000997FB92E8F36C1F018F4883579F0B5C006
:100ED000803719F0883721F0B0C0E92FE061BE2ECD
:100EE000B4FE0DC0FB2DF460BF2E09C034FE0AC055
:100EF000292F2660B22E06C028E030E005C020E190
:100F000030E002C020E132E0F801B7FE07C06081A6
:100F10007181828193810C5F1F4F06C06081718156
:100F200080E090E00E5F1F4FA3010E947908882E99
:100F30008618FB2DFF773F2E36FE0DC0232D2E7F0A
:100F4000A22E891458F434FE0BC032FC09C0832D44
:100F50008E7EA82E05C0B82CA32C03C0B82C01C0CF
:100F6000B92CA4FE0FC0FE01E80DF11D8081803375
:100F700021F49A2D997EA92E09C0A2FE06C0B39431
:100F8000B39404C08A2D867809F0B394A3FC11C0F1
:100F9000A0FE06C0B21488F4280C922C9B180EC038
:100FA000B21460F4B60180E290E00E943D08B39470
:100FB000F7CFB21418F42B1802C0982C212CA4FEE1
:100FC00010C0B60180E390E00E943D08A2FE17C069
:100FD000A1FC03C088E790E002C088E590E0B6017C
:100FE0000CC08A2D867859F0A1FE02C08BE201C0A8
:100FF00080E2A7FC8DE2B60190E00E943D088914D2
:1010000038F4B60180E390E00E943D089A94F7CF4F
:101010008A94F301E80DF11D8081B60190E00E94F1
:101020003D088110F5CF222009F442CEB60180E2BE
:1010300090E00E943D082A94F6CFF60186819781C0
:1010400002C08FEF9FEF2B96E2E10C94F308FC01B6
:101050000590615070400110D8F7809590958E0FE3
:101060009F1F0895FC016150704001900110D8F756
:10107000809590958E0F9F1F08950F931F93CF9388
:10108000DF93FB01238121FD03C08FEF9FEF2CC075
:1010900022FF16C0468157812481358142175307AC
:1010A00044F4A081B1819D012F5F3F4F31832083A4
:1010B0008C93268137812F5F3F4F3783268314C05F
:1010C0008B01EC01FB010084F185E02D0995892B52
:1010D000E1F6D80116968D919C9117970196179677
:1010E0009C938E931697CE01DF91CF911F910F9114
:1010F0000895FA01AA27283051F1203181F1E894AE
:101100006F936E7F6E5F7F4F8F4F9F4FAF4FB1E0FA
:101110003ED0B4E03CD0670F781F891F9A1FA11DF5
:10112000680F791F8A1F911DA11D6A0F711D811DF6
:10113000911DA11D20D009F468943F912AE0269FBB
:1011400011243019305D3193DEF6CF010895462F1A
:101150004770405D4193B3E00FD0C9F7F6CF462FFB
:101160004F70405D4A3318F0495D31FD4052419364
:1011700002D0A9F7EACFB4E0A69597958795779521
:101180006795BA95C9F700976105710508959B01A8
:10119000AC010A2E06945795479537952795BA9531
:1011A000C9F7620F731F841F951FA01D08952F920A
:1011B0003F924F925F926F927F928F929F92AF92E7
:1011C000BF92CF92DF92EF92FF920F931F93CF9334
:1011D000DF93CDB7DEB7CA1BDB0B0FB6F894DEBFCB
:1011E0000FBECDBF09942A88398848885F846E84F1
:1011F0007D848C849B84AA84B984C884DF80EE803B
:10120000FD800C811B81AA81B981CE0FD11D0FB643
:10121000F894DEBF0FBECDBFED010895F894FFCF67
:1012200000000001000000000000D40300000000E6
:10123000000200000000C5030000000046726F6E4F
:10124000743A2025640A004C6566743A2025640AC5
:101250000052696768743A2025640A0A00416C6C80
:101260002074687265652077616C6C732077726F8B
:101270006E670053544F50505050500046726F6E7E
:10128000742077616C6C2061686561640053544F11
:1012900050505050507269676874006C6F6C006CED
:1012A0006F6C320053544F50505050506C65667400
:1012B0000045766572797468696E67206973206F7E
:0412C0006B2100009E
:00000001FF
